{
  "_format": "hh-sol-artifact-1",
  "contractName": "MakeABetMarket",
  "sourceName": "contracts/MakeABetMarket.sol",
  "abi": [
    {
      "inputs": [
        {
          "internalType": "address",
          "name": "pythAddress",
          "type": "address"
        }
      ],
      "stateMutability": "nonpayable",
      "type": "constructor"
    },
    {
      "anonymous": false,
      "inputs": [
        {
          "indexed": true,
          "internalType": "uint256",
          "name": "roomId",
          "type": "uint256"
        },
        {
          "indexed": false,
          "internalType": "string",
          "name": "question",
          "type": "string"
        },
        {
          "indexed": false,
          "internalType": "bytes32",
          "name": "feedId",
          "type": "bytes32"
        },
        {
          "indexed": false,
          "internalType": "uint64",
          "name": "expiry",
          "type": "uint64"
        }
      ],
      "name": "RoomCreated",
      "type": "event"
    },
    {
      "anonymous": false,
      "inputs": [
        {
          "indexed": true,
          "internalType": "uint256",
          "name": "roomId",
          "type": "uint256"
        },
        {
          "indexed": false,
          "internalType": "bool",
          "name": "outcome",
          "type": "bool"
        }
      ],
      "name": "RoomSettled",
      "type": "event"
    },
    {
      "inputs": [],
      "name": "admin",
      "outputs": [
        {
          "internalType": "address",
          "name": "",
          "type": "address"
        }
      ],
      "stateMutability": "view",
      "type": "function"
    },
    {
      "inputs": [
        {
          "internalType": "string",
          "name": "question",
          "type": "string"
        },
        {
          "internalType": "bytes32",
          "name": "priceFeedId",
          "type": "bytes32"
        },
        {
          "internalType": "uint64",
          "name": "expiry",
          "type": "uint64"
        }
      ],
      "name": "createRoom",
      "outputs": [
        {
          "internalType": "uint256",
          "name": "roomId",
          "type": "uint256"
        }
      ],
      "stateMutability": "nonpayable",
      "type": "function"
    },
    {
      "inputs": [],
      "name": "nextRoomId",
      "outputs": [
        {
          "internalType": "uint256",
          "name": "",
          "type": "uint256"
        }
      ],
      "stateMutability": "view",
      "type": "function"
    },
    {
      "inputs": [],
      "name": "pyth",
      "outputs": [
        {
          "internalType": "contract IPyth",
          "name": "",
          "type": "address"
        }
      ],
      "stateMutability": "view",
      "type": "function"
    },
    {
      "inputs": [
        {
          "internalType": "uint256",
          "name": "",
          "type": "uint256"
        }
      ],
      "name": "rooms",
      "outputs": [
        {
          "internalType": "string",
          "name": "question",
          "type": "string"
        },
        {
          "internalType": "bytes32",
          "name": "priceFeedId",
          "type": "bytes32"
        },
        {
          "internalType": "uint64",
          "name": "expiry",
          "type": "uint64"
        },
        {
          "internalType": "bool",
          "name": "settled",
          "type": "bool"
        },
        {
          "internalType": "bool",
          "name": "outcome",
          "type": "bool"
        }
      ],
      "stateMutability": "view",
      "type": "function"
    },
    {
      "inputs": [
        {
          "internalType": "uint256",
          "name": "roomId",
          "type": "uint256"
        },
        {
          "internalType": "bytes[]",
          "name": "priceUpdateData",
          "type": "bytes[]"
        },
        {
          "internalType": "int64",
          "name": "targetPrice",
          "type": "int64"
        }
      ],
      "name": "settleRoom",
      "outputs": [],
      "stateMutability": "nonpayable",
      "type": "function"
    }
  ],
  "bytecode": "0x60c060405234801561001057600080fd5b50604051610c46380380610c4683398101604081905261002f91610044565b6001600160a01b03166080523360a052610074565b60006020828403121561005657600080fd5b81516001600160a01b038116811461006d57600080fd5b9392505050565b60805160a051610b996100ad600039600060d401526000818161011301528181610459015281816104d5015261057a0152610b996000f3fe608060405234801561001057600080fd5b50600436106100625760003560e01c806307a52cab146100675780631bae0ac814610083578063c5b1b2a4146100a7578063edbb8e52146100ba578063f851a440146100cf578063f98d06f01461010e575b600080fd5b61007060015481565b6040519081526020015b60405180910390f35b61009661009136600461067c565b610135565b60405161007a959493929190610695565b6100706100b5366004610728565b6101ff565b6100cd6100c83660046107c1565b610398565b005b6100f67f000000000000000000000000000000000000000000000000000000000000000081565b6040516001600160a01b03909116815260200161007a565b6100f67f000000000000000000000000000000000000000000000000000000000000000081565b60006020819052908152604090208054819061015090610847565b80601f016020809104026020016040519081016040528092919081815260200182805461017c90610847565b80156101c95780601f1061019e576101008083540402835291602001916101c9565b820191906000526020600020905b8154815290600101906020018083116101ac57829003601f168201915b50505060018401546002909401549293926001600160401b038116925060ff600160401b820481169250600160481b9091041685565b600042826001600160401b0316116102565760405162461bcd60e51b8152602060048201526015602482015274657870697279206d7573742062652066757475726560581b60448201526064015b60405180910390fd5b6001805490600061026683610881565b909155506040805160c06020601f8901819004028201810190925260a081018781529293509182918890889081908501838280828437600092018290525093855250505060208083018790526001600160401b03861660408085019190915260608401839052608090930182905284825281905220815181906102e9908261090f565b50602082015160018201556040808301516002909201805460608501516080909501511515600160481b0269ff00000000000000000019951515600160401b0268ffffffffffffffffff199092166001600160401b03909516949094171793909316919091179091555181907f8db8c2ad93046c0bfe111c21a6c44fdfbeb550c13f3fd501cf4e718a89a48e33906103889088908890889088906109f7565b60405180910390a2949350505050565b600084815260208190526040902060028101546001600160401b03164210156103f15760405162461bcd60e51b815260206004820152600b60248201526a1b9bdd08195e1c1a5c995960aa1b604482015260640161024d565b6002810154600160401b900460ff161561043f5760405162461bcd60e51b815260206004820152600f60248201526e185b1c9958591e481cd95d1d1b1959608a1b604482015260640161024d565b60405163d47eed4560e01b81526000906001600160a01b037f0000000000000000000000000000000000000000000000000000000000000000169063d47eed45906104909088908890600401610a2b565b602060405180830381865afa1580156104ad573d6000803e3d6000fd5b505050506040513d601f19601f820116820180604052508101906104d19190610ac6565b90507f00000000000000000000000000000000000000000000000000000000000000006001600160a01b031663ef9e5e288287876040518463ffffffff1660e01b8152600401610522929190610a2b565b6000604051808303818588803b15801561053b57600080fd5b505af115801561054f573d6000803e3d6000fd5b50505050600183015460405163052571af60e51b81526004810191909152603c6024820152600091507f00000000000000000000000000000000000000000000000000000000000000006001600160a01b03169063a4ae35e090604401608060405180830381865afa1580156105c9573d6000803e3d6000fd5b505050506040513d601f19601f820116820180604052508101906105ed9190610adf565b805160028501805468ff000000000000000019600160481b60078a810b9086900b121581029190911669ffff00000000000000001990921691909117600160401b1791829055604051910460ff16151581529192509088907f88bd05ab5d797a96056e5e6fac76952a2856e13fc0707a4f768b2e198987ebfc9060200160405180910390a25050505050505050565b60006020828403121561068e57600080fd5b5035919050565b60a08152600086518060a084015260005b818110156106c3576020818a0181015160c08684010152016106a6565b50600060c0828501015260c0601f19601f8301168401019150508560208301526106f860408301866001600160401b03169052565b92151560608201529015156080909101529392505050565b6001600160401b038116811461072557600080fd5b50565b6000806000806060858703121561073e57600080fd5b84356001600160401b038082111561075557600080fd5b818701915087601f83011261076957600080fd5b81358181111561077857600080fd5b88602082850101111561078a57600080fd5b60209283019650945050850135915060408501356107a781610710565b939692955090935050565b8060070b811461072557600080fd5b600080600080606085870312156107d757600080fd5b8435935060208501356001600160401b03808211156107f557600080fd5b818701915087601f83011261080957600080fd5b81358181111561081857600080fd5b8860208260051b850101111561082d57600080fd5b60208301955080945050505060408501356107a7816107b2565b600181811c9082168061085b57607f821691505b60208210810361087b57634e487b7160e01b600052602260045260246000fd5b50919050565b6000600182016108a157634e487b7160e01b600052601160045260246000fd5b5060010190565b634e487b7160e01b600052604160045260246000fd5b601f82111561090a576000816000526020600020601f850160051c810160208610156108e75750805b601f850160051c820191505b81811015610906578281556001016108f3565b5050505b505050565b81516001600160401b03811115610928576109286108a8565b61093c816109368454610847565b846108be565b602080601f83116001811461097157600084156109595750858301515b600019600386901b1c1916600185901b178555610906565b600085815260208120601f198616915b828110156109a057888601518255948401946001909101908401610981565b50858210156109be5787850151600019600388901b60f8161c191681555b5050505050600190811b01905550565b81835281816020850137506000828201602090810191909152601f909101601f19169091010190565b606081526000610a0b6060830186886109ce565b90508360208301526001600160401b038316604083015295945050505050565b60208082528181018390526000906040600585901b8401810190840186845b87811015610ab957868403603f190183528135368a9003601e19018112610a7057600080fd5b890185810190356001600160401b03811115610a8b57600080fd5b803603821315610a9a57600080fd5b610aa58682846109ce565b955050509184019190840190600101610a4a565b5091979650505050505050565b600060208284031215610ad857600080fd5b5051919050565b600060808284031215610af157600080fd5b604051608081018181106001600160401b0382111715610b1357610b136108a8565b6040528251610b21816107b2565b81526020830151610b3181610710565b60208201526040830151600381900b8114610b4b57600080fd5b6040820152606092830151928101929092525091905056fea2646970667358221220c74bbba9a93e58339adc95bf0cc97dc5c66faa19e7b4884215b8ac8dc05aeaef64736f6c63430008180033",
  "linkReferences": {},
  "deployedLinkReferences": {}
}