{
  "_format": "hh3-artifact-1",
  "contractName": "MakeABetMarket",
  "sourceName": "contracts/MakeABetMarket.sol",
  "abi": [
    {
      "inputs": [
        {
          "internalType": "address",
          "name": "pythAddress",
          "type": "address"
        },
        {
          "internalType": "address",
          "name": "tokenAddress",
          "type": "address"
        }
      ],
      "stateMutability": "nonpayable",
      "type": "constructor"
    },
    {
      "anonymous": false,
      "inputs": [
        {
          "indexed": true,
          "internalType": "uint256",
          "name": "marketId",
          "type": "uint256"
        },
        {
          "indexed": true,
          "internalType": "address",
          "name": "user",
          "type": "address"
        },
        {
          "indexed": false,
          "internalType": "bool",
          "name": "isBullish",
          "type": "bool"
        },
        {
          "indexed": false,
          "internalType": "uint256",
          "name": "amount",
          "type": "uint256"
        }
      ],
      "name": "BetPlaced",
      "type": "event"
    },
    {
      "anonymous": false,
      "inputs": [
        {
          "indexed": true,
          "internalType": "uint256",
          "name": "marketId",
          "type": "uint256"
        },
        {
          "indexed": false,
          "internalType": "string",
          "name": "question",
          "type": "string"
        },
        {
          "indexed": false,
          "internalType": "bytes32",
          "name": "feedId",
          "type": "bytes32"
        },
        {
          "indexed": false,
          "internalType": "int64",
          "name": "targetPrice",
          "type": "int64"
        },
        {
          "indexed": false,
          "internalType": "uint64",
          "name": "expiry",
          "type": "uint64"
        }
      ],
      "name": "MarketCreated",
      "type": "event"
    },
    {
      "anonymous": false,
      "inputs": [
        {
          "indexed": true,
          "internalType": "uint256",
          "name": "marketId",
          "type": "uint256"
        },
        {
          "indexed": false,
          "internalType": "bool",
          "name": "outcome",
          "type": "bool"
        }
      ],
      "name": "MarketSettled",
      "type": "event"
    },
    {
      "anonymous": false,
      "inputs": [
        {
          "indexed": true,
          "internalType": "uint256",
          "name": "marketId",
          "type": "uint256"
        },
        {
          "indexed": true,
          "internalType": "address",
          "name": "user",
          "type": "address"
        },
        {
          "indexed": false,
          "internalType": "uint256",
          "name": "amount",
          "type": "uint256"
        }
      ],
      "name": "WinningsClaimed",
      "type": "event"
    },
    {
      "inputs": [],
      "name": "admin",
      "outputs": [
        {
          "internalType": "address",
          "name": "",
          "type": "address"
        }
      ],
      "stateMutability": "view",
      "type": "function"
    },
    {
      "inputs": [
        {
          "internalType": "uint256",
          "name": "",
          "type": "uint256"
        },
        {
          "internalType": "address",
          "name": "",
          "type": "address"
        }
      ],
      "name": "bets",
      "outputs": [
        {
          "internalType": "bool",
          "name": "isBullish",
          "type": "bool"
        },
        {
          "internalType": "uint256",
          "name": "amount",
          "type": "uint256"
        },
        {
          "internalType": "bool",
          "name": "claimed",
          "type": "bool"
        }
      ],
      "stateMutability": "view",
      "type": "function"
    },
    {
      "inputs": [
        {
          "internalType": "uint256",
          "name": "marketId",
          "type": "uint256"
        }
      ],
      "name": "claimWinnings",
      "outputs": [],
      "stateMutability": "nonpayable",
      "type": "function"
    },
    {
      "inputs": [
        {
          "internalType": "string",
          "name": "question",
          "type": "string"
        },
        {
          "internalType": "bytes32",
          "name": "priceFeedId",
          "type": "bytes32"
        },
        {
          "internalType": "int64",
          "name": "targetPrice",
          "type": "int64"
        },
        {
          "internalType": "uint64",
          "name": "expiry",
          "type": "uint64"
        }
      ],
      "name": "createMarket",
      "outputs": [
        {
          "internalType": "uint256",
          "name": "marketId",
          "type": "uint256"
        }
      ],
      "stateMutability": "nonpayable",
      "type": "function"
    },
    {
      "inputs": [
        {
          "internalType": "uint256",
          "name": "marketId",
          "type": "uint256"
        }
      ],
      "name": "getMarket",
      "outputs": [
        {
          "components": [
            {
              "internalType": "string",
              "name": "question",
              "type": "string"
            },
            {
              "internalType": "bytes32",
              "name": "priceFeedId",
              "type": "bytes32"
            },
            {
              "internalType": "int64",
              "name": "targetPrice",
              "type": "int64"
            },
            {
              "internalType": "uint64",
              "name": "expiry",
              "type": "uint64"
            },
            {
              "internalType": "bool",
              "name": "settled",
              "type": "bool"
            },
            {
              "internalType": "bool",
              "name": "outcome",
              "type": "bool"
            },
            {
              "internalType": "uint256",
              "name": "bullishPool",
              "type": "uint256"
            },
            {
              "internalType": "uint256",
              "name": "bearishPool",
              "type": "uint256"
            }
          ],
          "internalType": "struct MakeABetMarket.Market",
          "name": "",
          "type": "tuple"
        }
      ],
      "stateMutability": "view",
      "type": "function"
    },
    {
      "inputs": [
        {
          "internalType": "uint256",
          "name": "marketId",
          "type": "uint256"
        },
        {
          "internalType": "address",
          "name": "user",
          "type": "address"
        }
      ],
      "name": "getUserBet",
      "outputs": [
        {
          "components": [
            {
              "internalType": "bool",
              "name": "isBullish",
              "type": "bool"
            },
            {
              "internalType": "uint256",
              "name": "amount",
              "type": "uint256"
            },
            {
              "internalType": "bool",
              "name": "claimed",
              "type": "bool"
            }
          ],
          "internalType": "struct MakeABetMarket.Bet",
          "name": "",
          "type": "tuple"
        }
      ],
      "stateMutability": "view",
      "type": "function"
    },
    {
      "inputs": [
        {
          "internalType": "uint256",
          "name": "",
          "type": "uint256"
        }
      ],
      "name": "markets",
      "outputs": [
        {
          "internalType": "string",
          "name": "question",
          "type": "string"
        },
        {
          "internalType": "bytes32",
          "name": "priceFeedId",
          "type": "bytes32"
        },
        {
          "internalType": "int64",
          "name": "targetPrice",
          "type": "int64"
        },
        {
          "internalType": "uint64",
          "name": "expiry",
          "type": "uint64"
        },
        {
          "internalType": "bool",
          "name": "settled",
          "type": "bool"
        },
        {
          "internalType": "bool",
          "name": "outcome",
          "type": "bool"
        },
        {
          "internalType": "uint256",
          "name": "bullishPool",
          "type": "uint256"
        },
        {
          "internalType": "uint256",
          "name": "bearishPool",
          "type": "uint256"
        }
      ],
      "stateMutability": "view",
      "type": "function"
    },
    {
      "inputs": [],
      "name": "nextMarketId",
      "outputs": [
        {
          "internalType": "uint256",
          "name": "",
          "type": "uint256"
        }
      ],
      "stateMutability": "view",
      "type": "function"
    },
    {
      "inputs": [
        {
          "internalType": "uint256",
          "name": "marketId",
          "type": "uint256"
        },
        {
          "internalType": "bool",
          "name": "isBullish",
          "type": "bool"
        },
        {
          "internalType": "uint256",
          "name": "amount",
          "type": "uint256"
        }
      ],
      "name": "placeBet",
      "outputs": [],
      "stateMutability": "nonpayable",
      "type": "function"
    },
    {
      "inputs": [],
      "name": "pyth",
      "outputs": [
        {
          "internalType": "contract IPyth",
          "name": "",
          "type": "address"
        }
      ],
      "stateMutability": "view",
      "type": "function"
    },
    {
      "inputs": [
        {
          "internalType": "uint256",
          "name": "marketId",
          "type": "uint256"
        },
        {
          "internalType": "bytes[]",
          "name": "priceUpdateData",
          "type": "bytes[]"
        }
      ],
      "name": "settleMarket",
      "outputs": [],
      "stateMutability": "payable",
      "type": "function"
    },
    {
      "inputs": [],
      "name": "token",
      "outputs": [
        {
          "internalType": "contract IERC20",
          "name": "",
          "type": "address"
        }
      ],
      "stateMutability": "view",
      "type": "function"
    }
  ],
  "bytecode": "0x60e0346100a557601f6113f438819003918201601f19168301916001600160401b038311848410176100a95780849260409485528339810103126100a557610052602061004b836100bd565b92016100bd565b6001600160a01b039182166080521660a0523360c05260405161132290816100d2823960805181818160ff0152610386015260a05181818160b701528181610c310152610e85015260c051816101440152f35b5f80fd5b634e487b7160e01b5f52604160045260245ffd5b51906001600160a01b03821682036100a55756fe6080806040526004361015610012575f80fd5b5f905f3560e01c9081631a38cac614610ddb57508063406ef2ef14610dbe578063677bd9ff14610b5657806388ea76e814610789578063b1283e77146106ea578063c03fb87c14610659578063cf109de5146102fd578063eb44fdd3146101cc578063f644b3bb14610173578063f851a4401461012e578063f98d06f0146100e95763fc0c546a146100a2575f80fd5b346100e657806003193601126100e6576040517f00000000000000000000000000000000000000000000000000000000000000006001600160a01b03168152602090f35b80fd5b50346100e657806003193601126100e6576040517f00000000000000000000000000000000000000000000000000000000000000006001600160a01b03168152602090f35b50346100e657806003193601126100e6576040517f00000000000000000000000000000000000000000000000000000000000000006001600160a01b03168152602090f35b50346100e6576040610184366111b3565b929081526001602052209060018060a01b03165f52602052606060405f2060ff8154169060ff6002600183015492015416906040519215158352602083015215156040820152f35b50346100e6576020806003193601126102f9576040826102c39360e083516101f38161107b565b60608152828682015282858201528260608201528260808201528260a08201528260c08201520152600435815280835220604051916102318361107b565b61023a826110d3565b835260018201549181840192835260028101549060408501918060070b83526001600160401b036060870190808360401c168252608088019160ff8460801c161515835260ff60a08a019460881c1615158452600460038601549560c08b0196875201549560e08a019687526040519a8b9a898c5251610100809a8d01526101208c0190611175565b985160408b01525160070b60608a01525116608088015251151560a087015251151560c08601525160e085015251908301520390f35b5080fd5b5060403660031901126105be57600435602480356001600160401b038082116105be57366023830112156105be5781600401358181116105be57838301928436918360051b0101116105be57845f526020925f845260405f20926002840193845493828560401c1642106106275760ff608095861c166105f15760405163d47eed4560e01b81527f00000000000000000000000000000000000000000000000000000000000000006001600160a01b03169490918883806103c284866004840161125c565b0381895afa9283156105b3575f936105c2575b50853b156105be57604051631df3cbc560e31b8152925f92849283918291610400916004840161125c565b0391885af180156105b35761058a575b5060018491015460446040518095819363052571af60e51b83526004830152610e108b8301525afa95861561057f5788966104ba575b50509351825460ff60881b198116600791820b9290910b919091121560881b60ff60881b16178255507f567004967c94ba65aa833c6d0374e264519bd15a847340c358d34c2e4a5e5d5d92505b805460ff60801b1916600160801b179081905560405160889190911c60ff1615158152a280f35b90919280965083813d8311610578575b6104d481836110b2565b81010312610561576040519586019086821083831117610565575060405281518060070b810361056157855283820151908116810361055d57838501526040810151938460030b850361055d576060610493927f567004967c94ba65aa833c6d0374e264519bd15a847340c358d34c2e4a5e5d5d96604084015201516060820152935f80610446565b8680fd5b8780fd5b634e487b7160e01b5f9081526041600452fd5b503d6104ca565b6040513d8a823e3d90fd5b9098508181116105a0576040525f976001610410565b86634e487b7160e01b5f5260416004525ffd5b6040513d5f823e3d90fd5b5f80fd5b9092508881813d83116105ea575b6105da81836110b2565b810103126105be5751915f6103d5565b503d6105d0565b60405162461bcd60e51b815260048101889052600f818a01526e185b1c9958591e481cd95d1d1b1959608a1b6044820152606490fd5b60405162461bcd60e51b815260048101889052600b818a01526a1b9bdd08195e1c1a5c995960aa1b6044820152606490fd5b346105be57610667366111b3565b905f6040805161067681611097565b82815282602082015201525f52600160205260405f209060018060a01b03165f52602052606060405f206040516106ac81611097565b60ff825416151591828252604060ff600260018401549360208601948552015416920191151582526040519283525160208301525115156040820152f35b346105be5760203660031901126105be576004355f525f60205261074260405f20610714816110d3565b9060018101549060028101549060ff6004600383015492015492604051968796610100808952880190611175565b9460208701528060070b60408701526001600160401b038160401c166060870152818160801c161515608087015260881c16151560a085015260c084015260e08301520390f35b346105be5760803660031901126105be576004356001600160401b0381116105be57366023820112156105be576001600160401b038160040135116105be573660248260040135830101116105be576044358060070b81036105be57606435906001600160401b03821682036105be57426001600160401b0383161115610b1957600254915f198314610b0557600183016002556040516108298161107b565b6040516108446004870135601f01601f1916602001826110b2565b60048601358082526024870160208301375f6020876004013583010152815260243560208201528260070b60408201526001600160401b03821660608201525f60808201525f60a08201525f60c08201525f60e0820152835f525f60205260405f209080518051906001600160401b038211610af1576108c48454611043565b601f8111610ab0575b50918695939160209895938990601f8311600114610a145760e06001600160401b0394847f3ee12b547b70ddd8ba48849dbb5ad99e5e061eb8939578e9da8096266886022d9a98956109e89a98956004955f92610a09575b50508160011b915f199060031b1c19161784555b808d01516001850155604080820151600286018054606085015160808087015160a088015160ff60881b19968e169690961671ffffffffffffffffffffffffffffffffffff19909416939093179190951b6fffffffffffffffff0000000000000000161790151590931b60ff60801b169290921790151560881b60ff60881b1617905560c08101516003850155015191015560405194859460808652608086019060248160040135910161123c565b926024358a86015260070b60408501521660608301520390a2604051908152f35b015190508f80610925565b90845f528a5f20915f5b601f1985168110610a9657506001600160401b03946001856109e89a989560049560e0957f3ee12b547b70ddd8ba48849dbb5ad99e5e061eb8939578e9da8096266886022d9e9c99601f19811610610a7e575b505050811b018455610939565b01515f1960f88460031b161c191690558f8080610a71565b8183015184558b9a50600190930192918c01918c01610a1e565b845f5260205f20601f840160051c810160208510610aea575b601f830160051c82018110610adf5750506108cd565b5f8155600101610ac9565b5080610ac9565b634e487b7160e01b5f52604160045260245ffd5b634e487b7160e01b5f52601160045260245ffd5b60405162461bcd60e51b8152602060048201526015602482015274657870697279206d7573742062652066757475726560581b6044820152606490fd5b346105be576020806003193601126105be57600435805f525f825260405f209160028301549260ff8460801c1615610d8457825f526001825260405f20335f52825260405f20936001850154908115610d5057600286019283549660ff8816610d195760ff809154169260881c169182151590151503610ce95760046003820154910154610be4818361122f565b9215610ce15750905b80830292830403610b05578015610ccd5760ff1990951660011790915560405163a9059cbb60e01b815233600482015293900460248401819052929080826044815f7f00000000000000000000000000000000000000000000000000000000000000006001600160a01b03165af19182156105b3577f5380cf6fe903b40c6d5a9e0dfbca2f3a423f0a21520b4d5947ed5169bdba946d92610c95915f91610ca0575b506111f1565b6040519384523393a3005b610cc09150833d8511610cc6575b610cb881836110b2565b8101906111d9565b86610c8f565b503d610cae565b634e487b7160e01b5f52601260045260245ffd5b905090610bed565b60405162461bcd60e51b815260048101869052600860248201526718995d081b1bdcdd60c21b6044820152606490fd5b60405162461bcd60e51b815260048101879052600f60248201526e185b1c9958591e4818db185a5b5959608a1b6044820152606490fd5b60405162461bcd60e51b815260048101859052600c60248201526b1b9bc818995d08199bdd5b9960a21b6044820152606490fd5b60405162461bcd60e51b81526004810183905260126024820152711b585c9ad95d081b9bdd081cd95d1d1b195960721b6044820152606490fd5b346105be575f3660031901126105be576020600254604051908152f35b346105be5760603660031901126105be576004356024803590811515938483036105be57604492833593855f526020935f855260405f20936002850154906001600160401b038260401c16421015611012575060801c60ff16610fdf578515610f9d57865f526001855260405f20335f52855260405f2060018101928354610f5b576040516323b872dd60e01b81523360048201523093810193909352820187905285826064815f7f00000000000000000000000000000000000000000000000000000000000000006001600160a01b03165af19182156105b357600292610ec9915f91610f3e57506111f1565b8660ff19938483541660ff8c1617835555019081541690555f14610f2957600301610ef583825461122f565b90555b6040519384528301527f4af71b021e799c62c158bd54636ca8da2fa26115a21a2dc6efe486ec104fd15f60403393a3005b600401610f3783825461122f565b9055610ef8565b610f559150883d8a11610cc657610cb881836110b2565b8b610c8f565b867f616c726561647920626574206f6e2074686973206d61726b6574000000000000606492601a866040519462461bcd60e51b86526004860152840152820152fd5b7f616d6f756e74206d75737420626520706f736974697665000000000000000000606492601787936040519462461bcd60e51b86526004860152840152820152fd5b6d1b585c9ad95d081cd95d1d1b195960921b606492600e87936040519462461bcd60e51b86526004860152840152820152fd5b62461bcd60e51b815260048101879052600e838201526d1b585c9ad95d08195e1c1a5c995960921b84820152606490fd5b90600182811c92168015611071575b602083101461105d57565b634e487b7160e01b5f52602260045260245ffd5b91607f1691611052565b61010081019081106001600160401b03821117610af157604052565b606081019081106001600160401b03821117610af157604052565b90601f801991011681019081106001600160401b03821117610af157604052565b9060405191825f82546110e581611043565b908184526020946001916001811690815f146111535750600114611115575b505050611113925003836110b2565b565b5f90815285812095935091905b81831061113b57505061111393508201015f8080611104565b85548884018501529485019487945091830191611122565b9250505061111394925060ff191682840152151560051b8201015f8080611104565b91908251928382525f5b84811061119f575050825f602080949584010152601f8019910116010190565b60208183018101518483018201520161117f565b60409060031901126105be57600435906024356001600160a01b03811681036105be5790565b908160209103126105be575180151581036105be5790565b156111f857565b60405162461bcd60e51b815260206004820152600f60248201526e1d1c985b9cd9995c8819985a5b1959608a1b6044820152606490fd5b91908201809211610b0557565b908060209392818452848401375f828201840152601f01601f1916010190565b91602081602085016020865252604084019360408360051b82010194845f925b85841061128d575050505050505090565b90919293949596603f198282030184528735601e19843603018112156105be5783018681019190356001600160401b0381116105be5780360383136105be576112db8892839260019561123c565b99019401940192959493919061127c56fea264697066735822122014477f91428dc5b8a0fbb91b49dde13e40145c10be81f66a5fe0747d4c1390ae64736f6c63430008180033",
  "linkReferences": {},
  "deployedLinkReferences": {},
  "immutableReferences": {
    "353": [
      {
        "length": 32,
        "start": 255
      },
      {
        "length": 32,
        "start": 902
      }
    ],
    "356": [
      {
        "length": 32,
        "start": 183
      },
      {
        "length": 32,
        "start": 3121
      },
      {
        "length": 32,
        "start": 3717
      }
    ],
    "358": [
      {
        "length": 32,
        "start": 324
      }
    ]
  },
  "inputSourceName": "project/contracts/MakeABetMarket.sol",
  "buildInfoId": "solc-0_8_24-8ebe890d0760ddbc5889886920529a7931f55d8e"
}