{
  "_format": "hh3-artifact-1",
  "contractName": "MakeABetMarket",
  "sourceName": "contracts/MakeABetMarket.sol",
  "abi": [
    {
      "inputs": [
        {
          "internalType": "address",
          "name": "pythAddress",
          "type": "address"
        }
      ],
      "stateMutability": "nonpayable",
      "type": "constructor"
    },
    {
      "anonymous": false,
      "inputs": [
        {
          "indexed": true,
          "internalType": "uint256",
          "name": "roomId",
          "type": "uint256"
        },
        {
          "indexed": false,
          "internalType": "string",
          "name": "question",
          "type": "string"
        },
        {
          "indexed": false,
          "internalType": "bytes32",
          "name": "feedId",
          "type": "bytes32"
        },
        {
          "indexed": false,
          "internalType": "uint64",
          "name": "expiry",
          "type": "uint64"
        }
      ],
      "name": "RoomCreated",
      "type": "event"
    },
    {
      "anonymous": false,
      "inputs": [
        {
          "indexed": true,
          "internalType": "uint256",
          "name": "roomId",
          "type": "uint256"
        },
        {
          "indexed": false,
          "internalType": "bool",
          "name": "outcome",
          "type": "bool"
        }
      ],
      "name": "RoomSettled",
      "type": "event"
    },
    {
      "inputs": [],
      "name": "admin",
      "outputs": [
        {
          "internalType": "address",
          "name": "",
          "type": "address"
        }
      ],
      "stateMutability": "view",
      "type": "function"
    },
    {
      "inputs": [
        {
          "internalType": "string",
          "name": "question",
          "type": "string"
        },
        {
          "internalType": "bytes32",
          "name": "priceFeedId",
          "type": "bytes32"
        },
        {
          "internalType": "uint64",
          "name": "expiry",
          "type": "uint64"
        }
      ],
      "name": "createRoom",
      "outputs": [
        {
          "internalType": "uint256",
          "name": "roomId",
          "type": "uint256"
        }
      ],
      "stateMutability": "nonpayable",
      "type": "function"
    },
    {
      "inputs": [],
      "name": "nextRoomId",
      "outputs": [
        {
          "internalType": "uint256",
          "name": "",
          "type": "uint256"
        }
      ],
      "stateMutability": "view",
      "type": "function"
    },
    {
      "inputs": [],
      "name": "pyth",
      "outputs": [
        {
          "internalType": "contract IPyth",
          "name": "",
          "type": "address"
        }
      ],
      "stateMutability": "view",
      "type": "function"
    },
    {
      "inputs": [
        {
          "internalType": "uint256",
          "name": "",
          "type": "uint256"
        }
      ],
      "name": "rooms",
      "outputs": [
        {
          "internalType": "string",
          "name": "question",
          "type": "string"
        },
        {
          "internalType": "bytes32",
          "name": "priceFeedId",
          "type": "bytes32"
        },
        {
          "internalType": "uint64",
          "name": "expiry",
          "type": "uint64"
        },
        {
          "internalType": "bool",
          "name": "settled",
          "type": "bool"
        },
        {
          "internalType": "bool",
          "name": "outcome",
          "type": "bool"
        }
      ],
      "stateMutability": "view",
      "type": "function"
    },
    {
      "inputs": [
        {
          "internalType": "uint256",
          "name": "roomId",
          "type": "uint256"
        },
        {
          "internalType": "bytes[]",
          "name": "priceUpdateData",
          "type": "bytes[]"
        },
        {
          "internalType": "int64",
          "name": "targetPrice",
          "type": "int64"
        }
      ],
      "name": "settleRoom",
      "outputs": [],
      "stateMutability": "nonpayable",
      "type": "function"
    }
  ],
  "bytecode": "0x60c03461007e57601f610b1538819003918201601f19168301916001600160401b038311848410176100825780849260209460405283398101031261007e57516001600160a01b0381169081900361007e576080523360a052604051610a7e9081610097823960805181818160750152610184015260a0518160bd0152f35b5f80fd5b634e487b7160e01b5f52604160045260245ffdfe6080806040526004361015610012575f80fd5b5f905f3560e01c90816307a52cab14610925575080631bae0ac8146107e5578063c5b1b2a414610461578063edbb8e52146100ec578063f851a440146100a75763f98d06f014610060575f80fd5b346100a457806003193601126100a4576040517f00000000000000000000000000000000000000000000000000000000000000006001600160a01b03168152602090f35b80fd5b50346100a457806003193601126100a4576040517f00000000000000000000000000000000000000000000000000000000000000006001600160a01b03168152602090f35b50346103c65760603660031901126103c657600435602480356001600160401b03918282116103c657366023830112156103c6578160040135908382116103c657808301928136918460051b0101116103c657604435908160070b8092036103c657855f526020935f855260405f2060028101948554888116421061042f5760401c60ff166103f95760405163d47eed4560e01b81527f00000000000000000000000000000000000000000000000000000000000000006001600160a01b03169390918883806101c08486600484016109b8565b0381885afa9283156103bb575f936103ca575b50843b156103c657604051631df3cbc560e31b8152925f928492839182916101fe91600484016109b8565b0391875af180156103bb57610392575b506001608091015460446040518094819363052571af60e51b83526004830152603c878301525afa9586156103875788966102bb575b50509351825469ff000000000000000000191660079190910b919091121560481b60ff60481b161781557f88bd05ab5d797a96056e5e6fac76952a2856e13fc0707a4f768b2e198987ebfc92505b6801000000000000000060ff60401b198254161780915560ff6040519160481c1615158152a280f35b90929195506080833d60801161037f575b816102d960809383610977565b81010312610364576040519560808701908782108383111761036c575060405282518060070b810361036857865284830151908116810361036457848601526040820151948560030b8603610364576060610292937f88bd05ab5d797a96056e5e6fac76952a2856e13fc0707a4f768b2e198987ebfc97604084015201516060820152948192610244565b8780fd5b8880fd5b634e487b7160e01b5f9081526041600452fd5b3d91506102cc565b6040513d8a823e3d90fd5b9098508681116103a8576040525f97600161020e565b82634e487b7160e01b5f5260416004525ffd5b6040513d5f823e3d90fd5b5f80fd5b9092508881813d83116103f2575b6103e28183610977565b810103126103c65751915f6101d3565b503d6103d8565b60405162461bcd60e51b815260048101889052600f818601526e185b1c9958591e481cd95d1d1b1959608a1b6044820152606490fd5b60405162461bcd60e51b815260048101899052600b818701526a1b9bdd08195e1c1a5c995960aa1b6044820152606490fd5b346103c65760603660031901126103c6576004356001600160401b0381116103c657366023820112156103c6576001600160401b038160040135116103c6573660248260040135830101116103c6576044356001600160401b03811681036103c657426001600160401b03821611156107a857600154905f19821461079457600182016001556040518060a08101106001600160401b0360a0830111176107805760a081016040526105246020601f19601f876004013501160160a08301610977565b600484013560a082018190526024850160c08301375f60c085600401358301015260a08101815260243560208201526001600160401b03821660408201525f60608201525f6080820152825f525f60205260405f2081518051906001600160401b03821161078057610596835461093f565b601f811161073f575b509160209693918695938890601f83116001146106a9576002610685969484610660957f8db8c2ad93046c0bfe111c21a6c44fdfbeb550c13f3fd501cf4e718a89a48e339a98956080955f9261069e575b50508160011b915f199060031b1c19161781555b8b840151600182015501916001600160401b0360408201511683549060ff60401b6060840151151560401b169168ffffffffffffffffff1916171783550151151560ff60481b825491151560481b169060ff60481b1916179055565b6001600160401b03604051938493606085526060850190602481600401359101610998565b91602435898501521660408301520390a2604051908152f35b015190508e806105f0565b90835f52895f20915f5b601f1985168110610725575061068596946001857f8db8c2ad93046c0bfe111c21a6c44fdfbeb550c13f3fd501cf4e718a89a48e339a989560809560029561066099601f1981161061070d575b505050811b018155610604565b01515f1960f88460031b161c191690558e8080610700565b8183015184558a9950600190930192918b01918b016106b3565b835f5260205f20601f840160051c810160208510610779575b601f830160051c8201811061076e57505061059f565b5f8155600101610758565b5080610758565b634e487b7160e01b5f52604160045260245ffd5b634e487b7160e01b5f52601160045260245ffd5b60405162461bcd60e51b8152602060048201526015602482015274657870697279206d7573742062652066757475726560581b6044820152606490fd5b346103c6576020806003193601126103c6576004355f525f815260405f206040519082825f83546108158161093f565b8084529060019081811690811561090457506001146108c7575b505061083d92500383610977565b600260018201549101549260405193849260a084528451928360a08601525f955b8487106108ae575060c095509060ff92915f8786880101528501526001600160401b0381166040850152818160401c161515606085015260481c1615156080830152601f80199101168101030190f35b86810182015188880160c001529581019587955061085e565b5f86815285812095935091905b8183106108ec57508794505082010161083d8761082f565b855488840185015294850194879450918301916108d4565b91505061083d94925060ff191682840152151560051b82010185928761082f565b346103c6575f3660031901126103c6576020906001548152f35b90600182811c9216801561096d575b602083101461095957565b634e487b7160e01b5f52602260045260245ffd5b91607f169161094e565b90601f801991011681019081106001600160401b0382111761078057604052565b908060209392818452848401375f828201840152601f01601f1916010190565b91602081602085016020865252604084019360408360051b82010194845f925b8584106109e9575050505050505090565b90919293949596603f198282030184528735601e19843603018112156103c65783018681019190356001600160401b0381116103c65780360383136103c657610a3788928392600195610998565b9901940194019295949391906109d856fea2646970667358221220914e49efe8717c0d4084235eb2cef2214ff74cbf4739d3075f6f1f4693d7fe8664736f6c63430008180033",
  "linkReferences": {},
  "deployedLinkReferences": {},
  "immutableReferences": {
    "1194": [
      {
        "length": 32,
        "start": 117
      },
      {
        "length": 32,
        "start": 388
      }
    ],
    "1196": [
      {
        "length": 32,
        "start": 189
      }
    ]
  },
  "inputSourceName": "project/contracts/MakeABetMarket.sol",
  "buildInfoId": "solc-0_8_24-ec5c98fee7aa239932abdb57900bdf0ab5de695d"
}