{"contracts/MakeABetMarket.sol":{"MakeABetMarket":{"abi":[{"inputs":[{"internalType":"address","name":"pythAddress","type":"address"}],"stateMutability":"nonpayable","type":"constructor"},{"anonymous":false,"inputs":[{"indexed":true,"internalType":"uint256","name":"roomId","type":"uint256"},{"indexed":false,"internalType":"string","name":"question","type":"string"},{"indexed":false,"internalType":"bytes32","name":"feedId","type":"bytes32"},{"indexed":false,"internalType":"uint64","name":"expiry","type":"uint64"}],"name":"RoomCreated","type":"event"},{"anonymous":false,"inputs":[{"indexed":true,"internalType":"uint256","name":"roomId","type":"uint256"},{"indexed":false,"internalType":"bool","name":"outcome","type":"bool"}],"name":"RoomSettled","type":"event"},{"inputs":[],"name":"admin","outputs":[{"internalType":"address","name":"","type":"address"}],"stateMutability":"view","type":"function"},{"inputs":[{"internalType":"string","name":"question","type":"string"},{"internalType":"bytes32","name":"priceFeedId","type":"bytes32"},{"internalType":"uint64","name":"expiry","type":"uint64"}],"name":"createRoom","outputs":[{"internalType":"uint256","name":"roomId","type":"uint256"}],"stateMutability":"nonpayable","type":"function"},{"inputs":[],"name":"nextRoomId","outputs":[{"internalType":"uint256","name":"","type":"uint256"}],"stateMutability":"view","type":"function"},{"inputs":[],"name":"pyth","outputs":[{"internalType":"contract IPyth","name":"","type":"address"}],"stateMutability":"view","type":"function"},{"inputs":[{"internalType":"uint256","name":"","type":"uint256"}],"name":"rooms","outputs":[{"internalType":"string","name":"question","type":"string"},{"internalType":"bytes32","name":"priceFeedId","type":"bytes32"},{"internalType":"uint64","name":"expiry","type":"uint64"},{"internalType":"bool","name":"settled","type":"bool"},{"internalType":"bool","name":"outcome","type":"bool"}],"stateMutability":"view","type":"function"},{"inputs":[{"internalType":"uint256","name":"roomId","type":"uint256"},{"internalType":"bytes[]","name":"priceUpdateData","type":"bytes[]"},{"internalType":"int64","name":"targetPrice","type":"int64"}],"name":"settleRoom","outputs":[],"stateMutability":"nonpayable","type":"function"}],"evm":{"bytecode":{"linkReferences":{},"object":"60c03461007e57601f610b1538819003918201601f19168301916001600160401b038311848410176100825780849260209460405283398101031261007e57516001600160a01b0381169081900361007e576080523360a052604051610a7e9081610097823960805181818160750152610184015260a0518160bd0152f35b5f80fd5b634e487b7160e01b5f52604160045260245ffdfe6080806040526004361015610012575f80fd5b5f905f3560e01c90816307a52cab14610925575080631bae0ac8146107e5578063c5b1b2a414610461578063edbb8e52146100ec578063f851a440146100a75763f98d06f014610060575f80fd5b346100a457806003193601126100a4576040517f00000000000000000000000000000000000000000000000000000000000000006001600160a01b03168152602090f35b80fd5b50346100a457806003193601126100a4576040517f00000000000000000000000000000000000000000000000000000000000000006001600160a01b03168152602090f35b50346103c65760603660031901126103c657600435602480356001600160401b03918282116103c657366023830112156103c6578160040135908382116103c657808301928136918460051b0101116103c657604435908160070b8092036103c657855f526020935f855260405f2060028101948554888116421061042f5760401c60ff166103f95760405163d47eed4560e01b81527f00000000000000000000000000000000000000000000000000000000000000006001600160a01b03169390918883806101c08486600484016109b8565b0381885afa9283156103bb575f936103ca575b50843b156103c657604051631df3cbc560e31b8152925f928492839182916101fe91600484016109b8565b0391875af180156103bb57610392575b506001608091015460446040518094819363052571af60e51b83526004830152603c878301525afa9586156103875788966102bb575b50509351825469ff000000000000000000191660079190910b919091121560481b60ff60481b161781557f88bd05ab5d797a96056e5e6fac76952a2856e13fc0707a4f768b2e198987ebfc92505b6801000000000000000060ff60401b198254161780915560ff6040519160481c1615158152a280f35b90929195506080833d60801161037f575b816102d960809383610977565b81010312610364576040519560808701908782108383111761036c575060405282518060070b810361036857865284830151908116810361036457848601526040820151948560030b8603610364576060610292937f88bd05ab5d797a96056e5e6fac76952a2856e13fc0707a4f768b2e198987ebfc97604084015201516060820152948192610244565b8780fd5b8880fd5b634e487b7160e01b5f9081526041600452fd5b3d91506102cc565b6040513d8a823e3d90fd5b9098508681116103a8576040525f97600161020e565b82634e487b7160e01b5f5260416004525ffd5b6040513d5f823e3d90fd5b5f80fd5b9092508881813d83116103f2575b6103e28183610977565b810103126103c65751915f6101d3565b503d6103d8565b60405162461bcd60e51b815260048101889052600f818601526e185b1c9958591e481cd95d1d1b1959608a1b6044820152606490fd5b60405162461bcd60e51b815260048101899052600b818701526a1b9bdd08195e1c1a5c995960aa1b6044820152606490fd5b346103c65760603660031901126103c6576004356001600160401b0381116103c657366023820112156103c6576001600160401b038160040135116103c6573660248260040135830101116103c6576044356001600160401b03811681036103c657426001600160401b03821611156107a857600154905f19821461079457600182016001556040518060a08101106001600160401b0360a0830111176107805760a081016040526105246020601f19601f876004013501160160a08301610977565b600484013560a082018190526024850160c08301375f60c085600401358301015260a08101815260243560208201526001600160401b03821660408201525f60608201525f6080820152825f525f60205260405f2081518051906001600160401b03821161078057610596835461093f565b601f811161073f575b509160209693918695938890601f83116001146106a9576002610685969484610660957f8db8c2ad93046c0bfe111c21a6c44fdfbeb550c13f3fd501cf4e718a89a48e339a98956080955f9261069e575b50508160011b915f199060031b1c19161781555b8b840151600182015501916001600160401b0360408201511683549060ff60401b6060840151151560401b169168ffffffffffffffffff1916171783550151151560ff60481b825491151560481b169060ff60481b1916179055565b6001600160401b03604051938493606085526060850190602481600401359101610998565b91602435898501521660408301520390a2604051908152f35b015190508e806105f0565b90835f52895f20915f5b601f1985168110610725575061068596946001857f8db8c2ad93046c0bfe111c21a6c44fdfbeb550c13f3fd501cf4e718a89a48e339a989560809560029561066099601f1981161061070d575b505050811b018155610604565b01515f1960f88460031b161c191690558e8080610700565b8183015184558a9950600190930192918b01918b016106b3565b835f5260205f20601f840160051c810160208510610779575b601f830160051c8201811061076e57505061059f565b5f8155600101610758565b5080610758565b634e487b7160e01b5f52604160045260245ffd5b634e487b7160e01b5f52601160045260245ffd5b60405162461bcd60e51b8152602060048201526015602482015274657870697279206d7573742062652066757475726560581b6044820152606490fd5b346103c6576020806003193601126103c6576004355f525f815260405f206040519082825f83546108158161093f565b8084529060019081811690811561090457506001146108c7575b505061083d92500383610977565b600260018201549101549260405193849260a084528451928360a08601525f955b8487106108ae575060c095509060ff92915f8786880101528501526001600160401b0381166040850152818160401c161515606085015260481c1615156080830152601f80199101168101030190f35b86810182015188880160c001529581019587955061085e565b5f86815285812095935091905b8183106108ec57508794505082010161083d8761082f565b855488840185015294850194879450918301916108d4565b91505061083d94925060ff191682840152151560051b82010185928761082f565b346103c6575f3660031901126103c6576020906001548152f35b90600182811c9216801561096d575b602083101461095957565b634e487b7160e01b5f52602260045260245ffd5b91607f169161094e565b90601f801991011681019081106001600160401b0382111761078057604052565b908060209392818452848401375f828201840152601f01601f1916010190565b91602081602085016020865252604084019360408360051b82010194845f925b8584106109e9575050505050505090565b90919293949596603f198282030184528735601e19843603018112156103c65783018681019190356001600160401b0381116103c65780360383136103c657610a3788928392600195610998565b9901940194019295949391906109d856fea264697066735822122070b7c2598edf059e4e5561cf172216c82e9a1d031d65b28b7fc75a853eb4a51864736f6c63430008180033","opcodes":"PUSH1 0xC0 CALLVALUE PUSH2 0x7E JUMPI PUSH1 0x1F PUSH2 0xB15 CODESIZE DUP2 SWAP1 SUB SWAP2 DUP3 ADD PUSH1 0x1F NOT AND DUP4 ADD SWAP2 PUSH1 0x1 PUSH1 0x1 PUSH1 0x40 SHL SUB DUP4 GT DUP5 DUP5 LT OR PUSH2 0x82 JUMPI DUP1 DUP5 SWAP3 PUSH1 0x20 SWAP5 PUSH1 0x40 MSTORE DUP4 CODECOPY DUP2 ADD SUB SLT PUSH2 0x7E JUMPI MLOAD PUSH1 0x1 PUSH1 0x1 PUSH1 0xA0 SHL SUB DUP2 AND SWAP1 DUP2 SWAP1 SUB PUSH2 0x7E JUMPI PUSH1 0x80 MSTORE CALLER PUSH1 0xA0 MSTORE PUSH1 0x40 MLOAD PUSH2 0xA7E SWAP1 DUP2 PUSH2 0x97 DUP3 CODECOPY PUSH1 0x80 MLOAD DUP2 DUP2 DUP2 PUSH1 0x75 ADD MSTORE PUSH2 0x184 ADD MSTORE PUSH1 0xA0 MLOAD DUP2 PUSH1 0xBD ADD MSTORE RETURN JUMPDEST PUSH0 DUP1 REVERT JUMPDEST PUSH4 0x4E487B71 PUSH1 0xE0 SHL PUSH0 MSTORE PUSH1 0x41 PUSH1 0x4 MSTORE PUSH1 0x24 PUSH0 REVERT INVALID PUSH1 0x80 DUP1 PUSH1 0x40 MSTORE PUSH1 0x4 CALLDATASIZE LT ISZERO PUSH2 0x12 JUMPI PUSH0 DUP1 REVERT JUMPDEST PUSH0 SWAP1 PUSH0 CALLDATALOAD PUSH1 0xE0 SHR SWAP1 DUP2 PUSH4 0x7A52CAB EQ PUSH2 0x925 JUMPI POP DUP1 PUSH4 0x1BAE0AC8 EQ PUSH2 0x7E5 JUMPI DUP1 PUSH4 0xC5B1B2A4 EQ PUSH2 0x461 JUMPI DUP1 PUSH4 0xEDBB8E52 EQ PUSH2 0xEC JUMPI DUP1 PUSH4 0xF851A440 EQ PUSH2 0xA7 JUMPI PUSH4 0xF98D06F0 EQ PUSH2 0x60 JUMPI PUSH0 DUP1 REVERT JUMPDEST CALLVALUE PUSH2 0xA4 JUMPI DUP1 PUSH1 0x3 NOT CALLDATASIZE ADD SLT PUSH2 0xA4 JUMPI PUSH1 0x40 MLOAD PUSH32 0x0 PUSH1 0x1 PUSH1 0x1 PUSH1 0xA0 SHL SUB AND DUP2 MSTORE PUSH1 0x20 SWAP1 RETURN JUMPDEST DUP1 REVERT JUMPDEST POP CALLVALUE PUSH2 0xA4 JUMPI DUP1 PUSH1 0x3 NOT CALLDATASIZE ADD SLT PUSH2 0xA4 JUMPI PUSH1 0x40 MLOAD PUSH32 0x0 PUSH1 0x1 PUSH1 0x1 PUSH1 0xA0 SHL SUB AND DUP2 MSTORE PUSH1 0x20 SWAP1 RETURN JUMPDEST POP CALLVALUE PUSH2 0x3C6 JUMPI PUSH1 0x60 CALLDATASIZE PUSH1 0x3 NOT ADD SLT PUSH2 0x3C6 JUMPI PUSH1 0x4 CALLDATALOAD PUSH1 0x24 DUP1 CALLDATALOAD PUSH1 0x1 PUSH1 0x1 PUSH1 0x40 SHL SUB SWAP2 DUP3 DUP3 GT PUSH2 0x3C6 JUMPI CALLDATASIZE PUSH1 0x23 DUP4 ADD SLT ISZERO PUSH2 0x3C6 JUMPI DUP2 PUSH1 0x4 ADD CALLDATALOAD SWAP1 DUP4 DUP3 GT PUSH2 0x3C6 JUMPI DUP1 DUP4 ADD SWAP3 DUP2 CALLDATASIZE SWAP2 DUP5 PUSH1 0x5 SHL ADD ADD GT PUSH2 0x3C6 JUMPI PUSH1 0x44 CALLDATALOAD SWAP1 DUP2 PUSH1 0x7 SIGNEXTEND DUP1 SWAP3 SUB PUSH2 0x3C6 JUMPI DUP6 PUSH0 MSTORE PUSH1 0x20 SWAP4 PUSH0 DUP6 MSTORE PUSH1 0x40 PUSH0 KECCAK256 PUSH1 0x2 DUP2 ADD SWAP5 DUP6 SLOAD DUP9 DUP2 AND TIMESTAMP LT PUSH2 0x42F JUMPI PUSH1 0x40 SHR PUSH1 0xFF AND PUSH2 0x3F9 JUMPI PUSH1 0x40 MLOAD PUSH4 0xD47EED45 PUSH1 0xE0 SHL DUP2 MSTORE PUSH32 0x0 PUSH1 0x1 PUSH1 0x1 PUSH1 0xA0 SHL SUB AND SWAP4 SWAP1 SWAP2 DUP9 DUP4 DUP1 PUSH2 0x1C0 DUP5 DUP7 PUSH1 0x4 DUP5 ADD PUSH2 0x9B8 JUMP JUMPDEST SUB DUP2 DUP9 GAS STATICCALL SWAP3 DUP4 ISZERO PUSH2 0x3BB JUMPI PUSH0 SWAP4 PUSH2 0x3CA JUMPI JUMPDEST POP DUP5 EXTCODESIZE ISZERO PUSH2 0x3C6 JUMPI PUSH1 0x40 MLOAD PUSH4 0x1DF3CBC5 PUSH1 0xE3 SHL DUP2 MSTORE SWAP3 PUSH0 SWAP3 DUP5 SWAP3 DUP4 SWAP2 DUP3 SWAP2 PUSH2 0x1FE SWAP2 PUSH1 0x4 DUP5 ADD PUSH2 0x9B8 JUMP JUMPDEST SUB SWAP2 DUP8 GAS CALL DUP1 ISZERO PUSH2 0x3BB JUMPI PUSH2 0x392 JUMPI JUMPDEST POP PUSH1 0x1 PUSH1 0x80 SWAP2 ADD SLOAD PUSH1 0x44 PUSH1 0x40 MLOAD DUP1 SWAP5 DUP2 SWAP4 PUSH4 0x52571AF PUSH1 0xE5 SHL DUP4 MSTORE PUSH1 0x4 DUP4 ADD MSTORE PUSH1 0x3C DUP8 DUP4 ADD MSTORE GAS STATICCALL SWAP6 DUP7 ISZERO PUSH2 0x387 JUMPI DUP9 SWAP7 PUSH2 0x2BB JUMPI JUMPDEST POP POP SWAP4 MLOAD DUP3 SLOAD PUSH10 0xFF000000000000000000 NOT AND PUSH1 0x7 SWAP2 SWAP1 SWAP2 SIGNEXTEND SWAP2 SWAP1 SWAP2 SLT ISZERO PUSH1 0x48 SHL PUSH1 0xFF PUSH1 0x48 SHL AND OR DUP2 SSTORE PUSH32 0x88BD05AB5D797A96056E5E6FAC76952A2856E13FC0707A4F768B2E198987EBFC SWAP3 POP JUMPDEST PUSH9 0x10000000000000000 PUSH1 0xFF PUSH1 0x40 SHL NOT DUP3 SLOAD AND OR DUP1 SWAP2 SSTORE PUSH1 0xFF PUSH1 0x40 MLOAD SWAP2 PUSH1 0x48 SHR AND ISZERO ISZERO DUP2 MSTORE LOG2 DUP1 RETURN JUMPDEST SWAP1 SWAP3 SWAP2 SWAP6 POP PUSH1 0x80 DUP4 RETURNDATASIZE PUSH1 0x80 GT PUSH2 0x37F JUMPI JUMPDEST DUP2 PUSH2 0x2D9 PUSH1 0x80 SWAP4 DUP4 PUSH2 0x977 JUMP JUMPDEST DUP2 ADD SUB SLT PUSH2 0x364 JUMPI PUSH1 0x40 MLOAD SWAP6 PUSH1 0x80 DUP8 ADD SWAP1 DUP8 DUP3 LT DUP4 DUP4 GT OR PUSH2 0x36C JUMPI POP PUSH1 0x40 MSTORE DUP3 MLOAD DUP1 PUSH1 0x7 SIGNEXTEND DUP2 SUB PUSH2 0x368 JUMPI DUP7 MSTORE DUP5 DUP4 ADD MLOAD SWAP1 DUP2 AND DUP2 SUB PUSH2 0x364 JUMPI DUP5 DUP7 ADD MSTORE PUSH1 0x40 DUP3 ADD MLOAD SWAP5 DUP6 PUSH1 0x3 SIGNEXTEND DUP7 SUB PUSH2 0x364 JUMPI PUSH1 0x60 PUSH2 0x292 SWAP4 PUSH32 0x88BD05AB5D797A96056E5E6FAC76952A2856E13FC0707A4F768B2E198987EBFC SWAP8 PUSH1 0x40 DUP5 ADD MSTORE ADD MLOAD PUSH1 0x60 DUP3 ADD MSTORE SWAP5 DUP2 SWAP3 PUSH2 0x244 JUMP JUMPDEST DUP8 DUP1 REVERT JUMPDEST DUP9 DUP1 REVERT JUMPDEST PUSH4 0x4E487B71 PUSH1 0xE0 SHL PUSH0 SWAP1 DUP2 MSTORE PUSH1 0x41 PUSH1 0x4 MSTORE REVERT JUMPDEST RETURNDATASIZE SWAP2 POP PUSH2 0x2CC JUMP JUMPDEST PUSH1 0x40 MLOAD RETURNDATASIZE DUP11 DUP3 RETURNDATACOPY RETURNDATASIZE SWAP1 REVERT JUMPDEST SWAP1 SWAP9 POP DUP7 DUP2 GT PUSH2 0x3A8 JUMPI PUSH1 0x40 MSTORE PUSH0 SWAP8 PUSH1 0x1 PUSH2 0x20E JUMP JUMPDEST DUP3 PUSH4 0x4E487B71 PUSH1 0xE0 SHL PUSH0 MSTORE PUSH1 0x41 PUSH1 0x4 MSTORE PUSH0 REVERT JUMPDEST PUSH1 0x40 MLOAD RETURNDATASIZE PUSH0 DUP3 RETURNDATACOPY RETURNDATASIZE SWAP1 REVERT JUMPDEST PUSH0 DUP1 REVERT JUMPDEST SWAP1 SWAP3 POP DUP9 DUP2 DUP2 RETURNDATASIZE DUP4 GT PUSH2 0x3F2 JUMPI JUMPDEST PUSH2 0x3E2 DUP2 DUP4 PUSH2 0x977 JUMP JUMPDEST DUP2 ADD SUB SLT PUSH2 0x3C6 JUMPI MLOAD SWAP2 PUSH0 PUSH2 0x1D3 JUMP JUMPDEST POP RETURNDATASIZE PUSH2 0x3D8 JUMP JUMPDEST PUSH1 0x40 MLOAD PUSH3 0x461BCD PUSH1 0xE5 SHL DUP2 MSTORE PUSH1 0x4 DUP2 ADD DUP9 SWAP1 MSTORE PUSH1 0xF DUP2 DUP7 ADD MSTORE PUSH15 0x185B1C9958591E481CD95D1D1B1959 PUSH1 0x8A SHL PUSH1 0x44 DUP3 ADD MSTORE PUSH1 0x64 SWAP1 REVERT JUMPDEST PUSH1 0x40 MLOAD PUSH3 0x461BCD PUSH1 0xE5 SHL DUP2 MSTORE PUSH1 0x4 DUP2 ADD DUP10 SWAP1 MSTORE PUSH1 0xB DUP2 DUP8 ADD MSTORE PUSH11 0x1B9BDD08195E1C1A5C9959 PUSH1 0xAA SHL PUSH1 0x44 DUP3 ADD MSTORE PUSH1 0x64 SWAP1 REVERT JUMPDEST CALLVALUE PUSH2 0x3C6 JUMPI PUSH1 0x60 CALLDATASIZE PUSH1 0x3 NOT ADD SLT PUSH2 0x3C6 JUMPI PUSH1 0x4 CALLDATALOAD PUSH1 0x1 PUSH1 0x1 PUSH1 0x40 SHL SUB DUP2 GT PUSH2 0x3C6 JUMPI CALLDATASIZE PUSH1 0x23 DUP3 ADD SLT ISZERO PUSH2 0x3C6 JUMPI PUSH1 0x1 PUSH1 0x1 PUSH1 0x40 SHL SUB DUP2 PUSH1 0x4 ADD CALLDATALOAD GT PUSH2 0x3C6 JUMPI CALLDATASIZE PUSH1 0x24 DUP3 PUSH1 0x4 ADD CALLDATALOAD DUP4 ADD ADD GT PUSH2 0x3C6 JUMPI PUSH1 0x44 CALLDATALOAD PUSH1 0x1 PUSH1 0x1 PUSH1 0x40 SHL SUB DUP2 AND DUP2 SUB PUSH2 0x3C6 JUMPI TIMESTAMP PUSH1 0x1 PUSH1 0x1 PUSH1 0x40 SHL SUB DUP3 AND GT ISZERO PUSH2 0x7A8 JUMPI PUSH1 0x1 SLOAD SWAP1 PUSH0 NOT DUP3 EQ PUSH2 0x794 JUMPI PUSH1 0x1 DUP3 ADD PUSH1 0x1 SSTORE PUSH1 0x40 MLOAD DUP1 PUSH1 0xA0 DUP2 ADD LT PUSH1 0x1 PUSH1 0x1 PUSH1 0x40 SHL SUB PUSH1 0xA0 DUP4 ADD GT OR PUSH2 0x780 JUMPI PUSH1 0xA0 DUP2 ADD PUSH1 0x40 MSTORE PUSH2 0x524 PUSH1 0x20 PUSH1 0x1F NOT PUSH1 0x1F DUP8 PUSH1 0x4 ADD CALLDATALOAD ADD AND ADD PUSH1 0xA0 DUP4 ADD PUSH2 0x977 JUMP JUMPDEST PUSH1 0x4 DUP5 ADD CALLDATALOAD PUSH1 0xA0 DUP3 ADD DUP2 SWAP1 MSTORE PUSH1 0x24 DUP6 ADD PUSH1 0xC0 DUP4 ADD CALLDATACOPY PUSH0 PUSH1 0xC0 DUP6 PUSH1 0x4 ADD CALLDATALOAD DUP4 ADD ADD MSTORE PUSH1 0xA0 DUP2 ADD DUP2 MSTORE PUSH1 0x24 CALLDATALOAD PUSH1 0x20 DUP3 ADD MSTORE PUSH1 0x1 PUSH1 0x1 PUSH1 0x40 SHL SUB DUP3 AND PUSH1 0x40 DUP3 ADD MSTORE PUSH0 PUSH1 0x60 DUP3 ADD MSTORE PUSH0 PUSH1 0x80 DUP3 ADD MSTORE DUP3 PUSH0 MSTORE PUSH0 PUSH1 0x20 MSTORE PUSH1 0x40 PUSH0 KECCAK256 DUP2 MLOAD DUP1 MLOAD SWAP1 PUSH1 0x1 PUSH1 0x1 PUSH1 0x40 SHL SUB DUP3 GT PUSH2 0x780 JUMPI PUSH2 0x596 DUP4 SLOAD PUSH2 0x93F JUMP JUMPDEST PUSH1 0x1F DUP2 GT PUSH2 0x73F JUMPI JUMPDEST POP SWAP2 PUSH1 0x20 SWAP7 SWAP4 SWAP2 DUP7 SWAP6 SWAP4 DUP9 SWAP1 PUSH1 0x1F DUP4 GT PUSH1 0x1 EQ PUSH2 0x6A9 JUMPI PUSH1 0x2 PUSH2 0x685 SWAP7 SWAP5 DUP5 PUSH2 0x660 SWAP6 PUSH32 0x8DB8C2AD93046C0BFE111C21A6C44FDFBEB550C13F3FD501CF4E718A89A48E33 SWAP11 SWAP9 SWAP6 PUSH1 0x80 SWAP6 PUSH0 SWAP3 PUSH2 0x69E JUMPI JUMPDEST POP POP DUP2 PUSH1 0x1 SHL SWAP2 PUSH0 NOT SWAP1 PUSH1 0x3 SHL SHR NOT AND OR DUP2 SSTORE JUMPDEST DUP12 DUP5 ADD MLOAD PUSH1 0x1 DUP3 ADD SSTORE ADD SWAP2 PUSH1 0x1 PUSH1 0x1 PUSH1 0x40 SHL SUB PUSH1 0x40 DUP3 ADD MLOAD AND DUP4 SLOAD SWAP1 PUSH1 0xFF PUSH1 0x40 SHL PUSH1 0x60 DUP5 ADD MLOAD ISZERO ISZERO PUSH1 0x40 SHL AND SWAP2 PUSH9 0xFFFFFFFFFFFFFFFFFF NOT AND OR OR DUP4 SSTORE ADD MLOAD ISZERO ISZERO PUSH1 0xFF PUSH1 0x48 SHL DUP3 SLOAD SWAP2 ISZERO ISZERO PUSH1 0x48 SHL AND SWAP1 PUSH1 0xFF PUSH1 0x48 SHL NOT AND OR SWAP1 SSTORE JUMP JUMPDEST PUSH1 0x1 PUSH1 0x1 PUSH1 0x40 SHL SUB PUSH1 0x40 MLOAD SWAP4 DUP5 SWAP4 PUSH1 0x60 DUP6 MSTORE PUSH1 0x60 DUP6 ADD SWAP1 PUSH1 0x24 DUP2 PUSH1 0x4 ADD CALLDATALOAD SWAP2 ADD PUSH2 0x998 JUMP JUMPDEST SWAP2 PUSH1 0x24 CALLDATALOAD DUP10 DUP6 ADD MSTORE AND PUSH1 0x40 DUP4 ADD MSTORE SUB SWAP1 LOG2 PUSH1 0x40 MLOAD SWAP1 DUP2 MSTORE RETURN JUMPDEST ADD MLOAD SWAP1 POP DUP15 DUP1 PUSH2 0x5F0 JUMP JUMPDEST SWAP1 DUP4 PUSH0 MSTORE DUP10 PUSH0 KECCAK256 SWAP2 PUSH0 JUMPDEST PUSH1 0x1F NOT DUP6 AND DUP2 LT PUSH2 0x725 JUMPI POP PUSH2 0x685 SWAP7 SWAP5 PUSH1 0x1 DUP6 PUSH32 0x8DB8C2AD93046C0BFE111C21A6C44FDFBEB550C13F3FD501CF4E718A89A48E33 SWAP11 SWAP9 SWAP6 PUSH1 0x80 SWAP6 PUSH1 0x2 SWAP6 PUSH2 0x660 SWAP10 PUSH1 0x1F NOT DUP2 AND LT PUSH2 0x70D JUMPI JUMPDEST POP POP POP DUP2 SHL ADD DUP2 SSTORE PUSH2 0x604 JUMP JUMPDEST ADD MLOAD PUSH0 NOT PUSH1 0xF8 DUP5 PUSH1 0x3 SHL AND SHR NOT AND SWAP1 SSTORE DUP15 DUP1 DUP1 PUSH2 0x700 JUMP JUMPDEST DUP2 DUP4 ADD MLOAD DUP5 SSTORE DUP11 SWAP10 POP PUSH1 0x1 SWAP1 SWAP4 ADD SWAP3 SWAP2 DUP12 ADD SWAP2 DUP12 ADD PUSH2 0x6B3 JUMP JUMPDEST DUP4 PUSH0 MSTORE PUSH1 0x20 PUSH0 KECCAK256 PUSH1 0x1F DUP5 ADD PUSH1 0x5 SHR DUP2 ADD PUSH1 0x20 DUP6 LT PUSH2 0x779 JUMPI JUMPDEST PUSH1 0x1F DUP4 ADD PUSH1 0x5 SHR DUP3 ADD DUP2 LT PUSH2 0x76E JUMPI POP POP PUSH2 0x59F JUMP JUMPDEST PUSH0 DUP2 SSTORE PUSH1 0x1 ADD PUSH2 0x758 JUMP JUMPDEST POP DUP1 PUSH2 0x758 JUMP JUMPDEST PUSH4 0x4E487B71 PUSH1 0xE0 SHL PUSH0 MSTORE PUSH1 0x41 PUSH1 0x4 MSTORE PUSH1 0x24 PUSH0 REVERT JUMPDEST PUSH4 0x4E487B71 PUSH1 0xE0 SHL PUSH0 MSTORE PUSH1 0x11 PUSH1 0x4 MSTORE PUSH1 0x24 PUSH0 REVERT JUMPDEST PUSH1 0x40 MLOAD PUSH3 0x461BCD PUSH1 0xE5 SHL DUP2 MSTORE PUSH1 0x20 PUSH1 0x4 DUP3 ADD MSTORE PUSH1 0x15 PUSH1 0x24 DUP3 ADD MSTORE PUSH21 0x657870697279206D75737420626520667574757265 PUSH1 0x58 SHL PUSH1 0x44 DUP3 ADD MSTORE PUSH1 0x64 SWAP1 REVERT JUMPDEST CALLVALUE PUSH2 0x3C6 JUMPI PUSH1 0x20 DUP1 PUSH1 0x3 NOT CALLDATASIZE ADD SLT PUSH2 0x3C6 JUMPI PUSH1 0x4 CALLDATALOAD PUSH0 MSTORE PUSH0 DUP2 MSTORE PUSH1 0x40 PUSH0 KECCAK256 PUSH1 0x40 MLOAD SWAP1 DUP3 DUP3 PUSH0 DUP4 SLOAD PUSH2 0x815 DUP2 PUSH2 0x93F JUMP JUMPDEST DUP1 DUP5 MSTORE SWAP1 PUSH1 0x1 SWAP1 DUP2 DUP2 AND SWAP1 DUP2 ISZERO PUSH2 0x904 JUMPI POP PUSH1 0x1 EQ PUSH2 0x8C7 JUMPI JUMPDEST POP POP PUSH2 0x83D SWAP3 POP SUB DUP4 PUSH2 0x977 JUMP JUMPDEST PUSH1 0x2 PUSH1 0x1 DUP3 ADD SLOAD SWAP2 ADD SLOAD SWAP3 PUSH1 0x40 MLOAD SWAP4 DUP5 SWAP3 PUSH1 0xA0 DUP5 MSTORE DUP5 MLOAD SWAP3 DUP4 PUSH1 0xA0 DUP7 ADD MSTORE PUSH0 SWAP6 JUMPDEST DUP5 DUP8 LT PUSH2 0x8AE JUMPI POP PUSH1 0xC0 SWAP6 POP SWAP1 PUSH1 0xFF SWAP3 SWAP2 PUSH0 DUP8 DUP7 DUP9 ADD ADD MSTORE DUP6 ADD MSTORE PUSH1 0x1 PUSH1 0x1 PUSH1 0x40 SHL SUB DUP2 AND PUSH1 0x40 DUP6 ADD MSTORE DUP2 DUP2 PUSH1 0x40 SHR AND ISZERO ISZERO PUSH1 0x60 DUP6 ADD MSTORE PUSH1 0x48 SHR AND ISZERO ISZERO PUSH1 0x80 DUP4 ADD MSTORE PUSH1 0x1F DUP1 NOT SWAP2 ADD AND DUP2 ADD SUB ADD SWAP1 RETURN JUMPDEST DUP7 DUP2 ADD DUP3 ADD MLOAD DUP9 DUP9 ADD PUSH1 0xC0 ADD MSTORE SWAP6 DUP2 ADD SWAP6 DUP8 SWAP6 POP PUSH2 0x85E JUMP JUMPDEST PUSH0 DUP7 DUP2 MSTORE DUP6 DUP2 KECCAK256 SWAP6 SWAP4 POP SWAP2 SWAP1 JUMPDEST DUP2 DUP4 LT PUSH2 0x8EC JUMPI POP DUP8 SWAP5 POP POP DUP3 ADD ADD PUSH2 0x83D DUP8 PUSH2 0x82F JUMP JUMPDEST DUP6 SLOAD DUP9 DUP5 ADD DUP6 ADD MSTORE SWAP5 DUP6 ADD SWAP5 DUP8 SWAP5 POP SWAP2 DUP4 ADD SWAP2 PUSH2 0x8D4 JUMP JUMPDEST SWAP2 POP POP PUSH2 0x83D SWAP5 SWAP3 POP PUSH1 0xFF NOT AND DUP3 DUP5 ADD MSTORE ISZERO ISZERO PUSH1 0x5 SHL DUP3 ADD ADD DUP6 SWAP3 DUP8 PUSH2 0x82F JUMP JUMPDEST CALLVALUE PUSH2 0x3C6 JUMPI PUSH0 CALLDATASIZE PUSH1 0x3 NOT ADD SLT PUSH2 0x3C6 JUMPI PUSH1 0x20 SWAP1 PUSH1 0x1 SLOAD DUP2 MSTORE RETURN JUMPDEST SWAP1 PUSH1 0x1 DUP3 DUP2 SHR SWAP3 AND DUP1 ISZERO PUSH2 0x96D JUMPI JUMPDEST PUSH1 0x20 DUP4 LT EQ PUSH2 0x959 JUMPI JUMP JUMPDEST PUSH4 0x4E487B71 PUSH1 0xE0 SHL PUSH0 MSTORE PUSH1 0x22 PUSH1 0x4 MSTORE PUSH1 0x24 PUSH0 REVERT JUMPDEST SWAP2 PUSH1 0x7F AND SWAP2 PUSH2 0x94E JUMP JUMPDEST SWAP1 PUSH1 0x1F DUP1 NOT SWAP2 ADD AND DUP2 ADD SWAP1 DUP2 LT PUSH1 0x1 PUSH1 0x1 PUSH1 0x40 SHL SUB DUP3 GT OR PUSH2 0x780 JUMPI PUSH1 0x40 MSTORE JUMP JUMPDEST SWAP1 DUP1 PUSH1 0x20 SWAP4 SWAP3 DUP2 DUP5 MSTORE DUP5 DUP5 ADD CALLDATACOPY PUSH0 DUP3 DUP3 ADD DUP5 ADD MSTORE PUSH1 0x1F ADD PUSH1 0x1F NOT AND ADD ADD SWAP1 JUMP JUMPDEST SWAP2 PUSH1 0x20 DUP2 PUSH1 0x20 DUP6 ADD PUSH1 0x20 DUP7 MSTORE MSTORE PUSH1 0x40 DUP5 ADD SWAP4 PUSH1 0x40 DUP4 PUSH1 0x5 SHL DUP3 ADD ADD SWAP5 DUP5 PUSH0 SWAP3 JUMPDEST DUP6 DUP5 LT PUSH2 0x9E9 JUMPI POP POP POP POP POP POP POP SWAP1 JUMP JUMPDEST SWAP1 SWAP2 SWAP3 SWAP4 SWAP5 SWAP6 SWAP7 PUSH1 0x3F NOT DUP3 DUP3 SUB ADD DUP5 MSTORE DUP8 CALLDATALOAD PUSH1 0x1E NOT DUP5 CALLDATASIZE SUB ADD DUP2 SLT ISZERO PUSH2 0x3C6 JUMPI DUP4 ADD DUP7 DUP2 ADD SWAP2 SWAP1 CALLDATALOAD PUSH1 0x1 PUSH1 0x1 PUSH1 0x40 SHL SUB DUP2 GT PUSH2 0x3C6 JUMPI DUP1 CALLDATASIZE SUB DUP4 SGT PUSH2 0x3C6 JUMPI PUSH2 0xA37 DUP9 SWAP3 DUP4 SWAP3 PUSH1 0x1 SWAP6 PUSH2 0x998 JUMP JUMPDEST SWAP10 ADD SWAP5 ADD SWAP5 ADD SWAP3 SWAP6 SWAP5 SWAP4 SWAP2 SWAP1 PUSH2 0x9D8 JUMP INVALID LOG2 PUSH5 0x6970667358 0x22 SLT KECCAK256 PUSH17 0xB7C2598EDF059E4E5561CF172216C82E9A SAR SUB SAR PUSH6 0xB28B7FC75A85 RETURNDATACOPY 0xB4 0xA5 XOR PUSH5 0x736F6C6343 STOP ADDMOD XOR STOP CALLER "},"methodIdentifiers":{"admin()":"f851a440","createRoom(string,bytes32,uint64)":"c5b1b2a4","nextRoomId()":"07a52cab","pyth()":"f98d06f0","rooms(uint256)":"1bae0ac8","settleRoom(uint256,bytes[],int64)":"edbb8e52"}}}}}