{"project/contracts/MakeABetMarket.sol":{"MakeABetMarket":{"abi":[{"inputs":[{"internalType":"address","name":"pythAddress","type":"address"},{"internalType":"address","name":"tokenAddress","type":"address"}],"stateMutability":"nonpayable","type":"constructor"},{"anonymous":false,"inputs":[{"indexed":true,"internalType":"uint256","name":"marketId","type":"uint256"},{"indexed":true,"internalType":"address","name":"user","type":"address"},{"indexed":false,"internalType":"bool","name":"isBullish","type":"bool"},{"indexed":false,"internalType":"uint256","name":"amount","type":"uint256"}],"name":"BetPlaced","type":"event"},{"anonymous":false,"inputs":[{"indexed":true,"internalType":"uint256","name":"marketId","type":"uint256"},{"indexed":false,"internalType":"string","name":"question","type":"string"},{"indexed":false,"internalType":"bytes32","name":"feedId","type":"bytes32"},{"indexed":false,"internalType":"int64","name":"targetPrice","type":"int64"},{"indexed":false,"internalType":"uint64","name":"expiry","type":"uint64"}],"name":"MarketCreated","type":"event"},{"anonymous":false,"inputs":[{"indexed":true,"internalType":"uint256","name":"marketId","type":"uint256"},{"indexed":false,"internalType":"bool","name":"outcome","type":"bool"}],"name":"MarketSettled","type":"event"},{"anonymous":false,"inputs":[{"indexed":true,"internalType":"uint256","name":"marketId","type":"uint256"},{"indexed":true,"internalType":"address","name":"user","type":"address"},{"indexed":false,"internalType":"uint256","name":"amount","type":"uint256"}],"name":"WinningsClaimed","type":"event"},{"inputs":[],"name":"admin","outputs":[{"internalType":"address","name":"","type":"address"}],"stateMutability":"view","type":"function"},{"inputs":[{"internalType":"uint256","name":"","type":"uint256"},{"internalType":"address","name":"","type":"address"}],"name":"bets","outputs":[{"internalType":"bool","name":"isBullish","type":"bool"},{"internalType":"uint256","name":"amount","type":"uint256"},{"internalType":"bool","name":"claimed","type":"bool"}],"stateMutability":"view","type":"function"},{"inputs":[{"internalType":"uint256","name":"marketId","type":"uint256"}],"name":"claimWinnings","outputs":[],"stateMutability":"nonpayable","type":"function"},{"inputs":[{"internalType":"string","name":"question","type":"string"},{"internalType":"bytes32","name":"priceFeedId","type":"bytes32"},{"internalType":"int64","name":"targetPrice","type":"int64"},{"internalType":"uint64","name":"expiry","type":"uint64"}],"name":"createMarket","outputs":[{"internalType":"uint256","name":"marketId","type":"uint256"}],"stateMutability":"nonpayable","type":"function"},{"inputs":[{"internalType":"uint256","name":"marketId","type":"uint256"}],"name":"getMarket","outputs":[{"components":[{"internalType":"string","name":"question","type":"string"},{"internalType":"bytes32","name":"priceFeedId","type":"bytes32"},{"internalType":"int64","name":"targetPrice","type":"int64"},{"internalType":"uint64","name":"expiry","type":"uint64"},{"internalType":"bool","name":"settled","type":"bool"},{"internalType":"bool","name":"outcome","type":"bool"},{"internalType":"uint256","name":"bullishPool","type":"uint256"},{"internalType":"uint256","name":"bearishPool","type":"uint256"}],"internalType":"struct MakeABetMarket.Market","name":"","type":"tuple"}],"stateMutability":"view","type":"function"},{"inputs":[{"internalType":"uint256","name":"marketId","type":"uint256"},{"internalType":"address","name":"user","type":"address"}],"name":"getUserBet","outputs":[{"components":[{"internalType":"bool","name":"isBullish","type":"bool"},{"internalType":"uint256","name":"amount","type":"uint256"},{"internalType":"bool","name":"claimed","type":"bool"}],"internalType":"struct MakeABetMarket.Bet","name":"","type":"tuple"}],"stateMutability":"view","type":"function"},{"inputs":[{"internalType":"uint256","name":"","type":"uint256"}],"name":"markets","outputs":[{"internalType":"string","name":"question","type":"string"},{"internalType":"bytes32","name":"priceFeedId","type":"bytes32"},{"internalType":"int64","name":"targetPrice","type":"int64"},{"internalType":"uint64","name":"expiry","type":"uint64"},{"internalType":"bool","name":"settled","type":"bool"},{"internalType":"bool","name":"outcome","type":"bool"},{"internalType":"uint256","name":"bullishPool","type":"uint256"},{"internalType":"uint256","name":"bearishPool","type":"uint256"}],"stateMutability":"view","type":"function"},{"inputs":[],"name":"nextMarketId","outputs":[{"internalType":"uint256","name":"","type":"uint256"}],"stateMutability":"view","type":"function"},{"inputs":[{"internalType":"uint256","name":"marketId","type":"uint256"},{"internalType":"bool","name":"isBullish","type":"bool"},{"internalType":"uint256","name":"amount","type":"uint256"}],"name":"placeBet","outputs":[],"stateMutability":"nonpayable","type":"function"},{"inputs":[],"name":"pyth","outputs":[{"internalType":"contract IPyth","name":"","type":"address"}],"stateMutability":"view","type":"function"},{"inputs":[{"internalType":"uint256","name":"marketId","type":"uint256"},{"internalType":"bytes[]","name":"priceUpdateData","type":"bytes[]"}],"name":"settleMarket","outputs":[],"stateMutability":"payable","type":"function"},{"inputs":[],"name":"token","outputs":[{"internalType":"contract IERC20","name":"","type":"address"}],"stateMutability":"view","type":"function"}],"evm":{"bytecode":{"linkReferences":{},"object":"60e0346100a557601f6113f438819003918201601f19168301916001600160401b038311848410176100a95780849260409485528339810103126100a557610052602061004b836100bd565b92016100bd565b6001600160a01b039182166080521660a0523360c05260405161132290816100d2823960805181818160ff0152610386015260a05181818160b701528181610c310152610e85015260c051816101440152f35b5f80fd5b634e487b7160e01b5f52604160045260245ffd5b51906001600160a01b03821682036100a55756fe6080806040526004361015610012575f80fd5b5f905f3560e01c9081631a38cac614610ddb57508063406ef2ef14610dbe578063677bd9ff14610b5657806388ea76e814610789578063b1283e77146106ea578063c03fb87c14610659578063cf109de5146102fd578063eb44fdd3146101cc578063f644b3bb14610173578063f851a4401461012e578063f98d06f0146100e95763fc0c546a146100a2575f80fd5b346100e657806003193601126100e6576040517f00000000000000000000000000000000000000000000000000000000000000006001600160a01b03168152602090f35b80fd5b50346100e657806003193601126100e6576040517f00000000000000000000000000000000000000000000000000000000000000006001600160a01b03168152602090f35b50346100e657806003193601126100e6576040517f00000000000000000000000000000000000000000000000000000000000000006001600160a01b03168152602090f35b50346100e6576040610184366111b3565b929081526001602052209060018060a01b03165f52602052606060405f2060ff8154169060ff6002600183015492015416906040519215158352602083015215156040820152f35b50346100e6576020806003193601126102f9576040826102c39360e083516101f38161107b565b60608152828682015282858201528260608201528260808201528260a08201528260c08201520152600435815280835220604051916102318361107b565b61023a826110d3565b835260018201549181840192835260028101549060408501918060070b83526001600160401b036060870190808360401c168252608088019160ff8460801c161515835260ff60a08a019460881c1615158452600460038601549560c08b0196875201549560e08a019687526040519a8b9a898c5251610100809a8d01526101208c0190611175565b985160408b01525160070b60608a01525116608088015251151560a087015251151560c08601525160e085015251908301520390f35b5080fd5b5060403660031901126105be57600435602480356001600160401b038082116105be57366023830112156105be5781600401358181116105be57838301928436918360051b0101116105be57845f526020925f845260405f20926002840193845493828560401c1642106106275760ff608095861c166105f15760405163d47eed4560e01b81527f00000000000000000000000000000000000000000000000000000000000000006001600160a01b03169490918883806103c284866004840161125c565b0381895afa9283156105b3575f936105c2575b50853b156105be57604051631df3cbc560e31b8152925f92849283918291610400916004840161125c565b0391885af180156105b35761058a575b5060018491015460446040518095819363052571af60e51b83526004830152610e108b8301525afa95861561057f5788966104ba575b50509351825460ff60881b198116600791820b9290910b919091121560881b60ff60881b16178255507f567004967c94ba65aa833c6d0374e264519bd15a847340c358d34c2e4a5e5d5d92505b805460ff60801b1916600160801b179081905560405160889190911c60ff1615158152a280f35b90919280965083813d8311610578575b6104d481836110b2565b81010312610561576040519586019086821083831117610565575060405281518060070b810361056157855283820151908116810361055d57838501526040810151938460030b850361055d576060610493927f567004967c94ba65aa833c6d0374e264519bd15a847340c358d34c2e4a5e5d5d96604084015201516060820152935f80610446565b8680fd5b8780fd5b634e487b7160e01b5f9081526041600452fd5b503d6104ca565b6040513d8a823e3d90fd5b9098508181116105a0576040525f976001610410565b86634e487b7160e01b5f5260416004525ffd5b6040513d5f823e3d90fd5b5f80fd5b9092508881813d83116105ea575b6105da81836110b2565b810103126105be5751915f6103d5565b503d6105d0565b60405162461bcd60e51b815260048101889052600f818a01526e185b1c9958591e481cd95d1d1b1959608a1b6044820152606490fd5b60405162461bcd60e51b815260048101889052600b818a01526a1b9bdd08195e1c1a5c995960aa1b6044820152606490fd5b346105be57610667366111b3565b905f6040805161067681611097565b82815282602082015201525f52600160205260405f209060018060a01b03165f52602052606060405f206040516106ac81611097565b60ff825416151591828252604060ff600260018401549360208601948552015416920191151582526040519283525160208301525115156040820152f35b346105be5760203660031901126105be576004355f525f60205261074260405f20610714816110d3565b9060018101549060028101549060ff6004600383015492015492604051968796610100808952880190611175565b9460208701528060070b60408701526001600160401b038160401c166060870152818160801c161515608087015260881c16151560a085015260c084015260e08301520390f35b346105be5760803660031901126105be576004356001600160401b0381116105be57366023820112156105be576001600160401b038160040135116105be573660248260040135830101116105be576044358060070b81036105be57606435906001600160401b03821682036105be57426001600160401b0383161115610b1957600254915f198314610b0557600183016002556040516108298161107b565b6040516108446004870135601f01601f1916602001826110b2565b60048601358082526024870160208301375f6020876004013583010152815260243560208201528260070b60408201526001600160401b03821660608201525f60808201525f60a08201525f60c08201525f60e0820152835f525f60205260405f209080518051906001600160401b038211610af1576108c48454611043565b601f8111610ab0575b50918695939160209895938990601f8311600114610a145760e06001600160401b0394847f3ee12b547b70ddd8ba48849dbb5ad99e5e061eb8939578e9da8096266886022d9a98956109e89a98956004955f92610a09575b50508160011b915f199060031b1c19161784555b808d01516001850155604080820151600286018054606085015160808087015160a088015160ff60881b19968e169690961671ffffffffffffffffffffffffffffffffffff19909416939093179190951b6fffffffffffffffff0000000000000000161790151590931b60ff60801b169290921790151560881b60ff60881b1617905560c08101516003850155015191015560405194859460808652608086019060248160040135910161123c565b926024358a86015260070b60408501521660608301520390a2604051908152f35b015190508f80610925565b90845f528a5f20915f5b601f1985168110610a9657506001600160401b03946001856109e89a989560049560e0957f3ee12b547b70ddd8ba48849dbb5ad99e5e061eb8939578e9da8096266886022d9e9c99601f19811610610a7e575b505050811b018455610939565b01515f1960f88460031b161c191690558f8080610a71565b8183015184558b9a50600190930192918c01918c01610a1e565b845f5260205f20601f840160051c810160208510610aea575b601f830160051c82018110610adf5750506108cd565b5f8155600101610ac9565b5080610ac9565b634e487b7160e01b5f52604160045260245ffd5b634e487b7160e01b5f52601160045260245ffd5b60405162461bcd60e51b8152602060048201526015602482015274657870697279206d7573742062652066757475726560581b6044820152606490fd5b346105be576020806003193601126105be57600435805f525f825260405f209160028301549260ff8460801c1615610d8457825f526001825260405f20335f52825260405f20936001850154908115610d5057600286019283549660ff8816610d195760ff809154169260881c169182151590151503610ce95760046003820154910154610be4818361122f565b9215610ce15750905b80830292830403610b05578015610ccd5760ff1990951660011790915560405163a9059cbb60e01b815233600482015293900460248401819052929080826044815f7f00000000000000000000000000000000000000000000000000000000000000006001600160a01b03165af19182156105b3577f5380cf6fe903b40c6d5a9e0dfbca2f3a423f0a21520b4d5947ed5169bdba946d92610c95915f91610ca0575b506111f1565b6040519384523393a3005b610cc09150833d8511610cc6575b610cb881836110b2565b8101906111d9565b86610c8f565b503d610cae565b634e487b7160e01b5f52601260045260245ffd5b905090610bed565b60405162461bcd60e51b815260048101869052600860248201526718995d081b1bdcdd60c21b6044820152606490fd5b60405162461bcd60e51b815260048101879052600f60248201526e185b1c9958591e4818db185a5b5959608a1b6044820152606490fd5b60405162461bcd60e51b815260048101859052600c60248201526b1b9bc818995d08199bdd5b9960a21b6044820152606490fd5b60405162461bcd60e51b81526004810183905260126024820152711b585c9ad95d081b9bdd081cd95d1d1b195960721b6044820152606490fd5b346105be575f3660031901126105be576020600254604051908152f35b346105be5760603660031901126105be576004356024803590811515938483036105be57604492833593855f526020935f855260405f20936002850154906001600160401b038260401c16421015611012575060801c60ff16610fdf578515610f9d57865f526001855260405f20335f52855260405f2060018101928354610f5b576040516323b872dd60e01b81523360048201523093810193909352820187905285826064815f7f00000000000000000000000000000000000000000000000000000000000000006001600160a01b03165af19182156105b357600292610ec9915f91610f3e57506111f1565b8660ff19938483541660ff8c1617835555019081541690555f14610f2957600301610ef583825461122f565b90555b6040519384528301527f4af71b021e799c62c158bd54636ca8da2fa26115a21a2dc6efe486ec104fd15f60403393a3005b600401610f3783825461122f565b9055610ef8565b610f559150883d8a11610cc657610cb881836110b2565b8b610c8f565b867f616c726561647920626574206f6e2074686973206d61726b6574000000000000606492601a866040519462461bcd60e51b86526004860152840152820152fd5b7f616d6f756e74206d75737420626520706f736974697665000000000000000000606492601787936040519462461bcd60e51b86526004860152840152820152fd5b6d1b585c9ad95d081cd95d1d1b195960921b606492600e87936040519462461bcd60e51b86526004860152840152820152fd5b62461bcd60e51b815260048101879052600e838201526d1b585c9ad95d08195e1c1a5c995960921b84820152606490fd5b90600182811c92168015611071575b602083101461105d57565b634e487b7160e01b5f52602260045260245ffd5b91607f1691611052565b61010081019081106001600160401b03821117610af157604052565b606081019081106001600160401b03821117610af157604052565b90601f801991011681019081106001600160401b03821117610af157604052565b9060405191825f82546110e581611043565b908184526020946001916001811690815f146111535750600114611115575b505050611113925003836110b2565b565b5f90815285812095935091905b81831061113b57505061111393508201015f8080611104565b85548884018501529485019487945091830191611122565b9250505061111394925060ff191682840152151560051b8201015f8080611104565b91908251928382525f5b84811061119f575050825f602080949584010152601f8019910116010190565b60208183018101518483018201520161117f565b60409060031901126105be57600435906024356001600160a01b03811681036105be5790565b908160209103126105be575180151581036105be5790565b156111f857565b60405162461bcd60e51b815260206004820152600f60248201526e1d1c985b9cd9995c8819985a5b1959608a1b6044820152606490fd5b91908201809211610b0557565b908060209392818452848401375f828201840152601f01601f1916010190565b91602081602085016020865252604084019360408360051b82010194845f925b85841061128d575050505050505090565b90919293949596603f198282030184528735601e19843603018112156105be5783018681019190356001600160401b0381116105be5780360383136105be576112db8892839260019561123c565b99019401940192959493919061127c56fea264697066735822122014477f91428dc5b8a0fbb91b49dde13e40145c10be81f66a5fe0747d4c1390ae64736f6c63430008180033","opcodes":"PUSH1 0xE0 CALLVALUE PUSH2 0xA5 JUMPI PUSH1 0x1F PUSH2 0x13F4 CODESIZE DUP2 SWAP1 SUB SWAP2 DUP3 ADD PUSH1 0x1F NOT AND DUP4 ADD SWAP2 PUSH1 0x1 PUSH1 0x1 PUSH1 0x40 SHL SUB DUP4 GT DUP5 DUP5 LT OR PUSH2 0xA9 JUMPI DUP1 DUP5 SWAP3 PUSH1 0x40 SWAP5 DUP6 MSTORE DUP4 CODECOPY DUP2 ADD SUB SLT PUSH2 0xA5 JUMPI PUSH2 0x52 PUSH1 0x20 PUSH2 0x4B DUP4 PUSH2 0xBD JUMP JUMPDEST SWAP3 ADD PUSH2 0xBD JUMP JUMPDEST PUSH1 0x1 PUSH1 0x1 PUSH1 0xA0 SHL SUB SWAP2 DUP3 AND PUSH1 0x80 MSTORE AND PUSH1 0xA0 MSTORE CALLER PUSH1 0xC0 MSTORE PUSH1 0x40 MLOAD PUSH2 0x1322 SWAP1 DUP2 PUSH2 0xD2 DUP3 CODECOPY PUSH1 0x80 MLOAD DUP2 DUP2 DUP2 PUSH1 0xFF ADD MSTORE PUSH2 0x386 ADD MSTORE PUSH1 0xA0 MLOAD DUP2 DUP2 DUP2 PUSH1 0xB7 ADD MSTORE DUP2 DUP2 PUSH2 0xC31 ADD MSTORE PUSH2 0xE85 ADD MSTORE PUSH1 0xC0 MLOAD DUP2 PUSH2 0x144 ADD MSTORE RETURN JUMPDEST PUSH0 DUP1 REVERT JUMPDEST PUSH4 0x4E487B71 PUSH1 0xE0 SHL PUSH0 MSTORE PUSH1 0x41 PUSH1 0x4 MSTORE PUSH1 0x24 PUSH0 REVERT JUMPDEST MLOAD SWAP1 PUSH1 0x1 PUSH1 0x1 PUSH1 0xA0 SHL SUB DUP3 AND DUP3 SUB PUSH2 0xA5 JUMPI JUMP INVALID PUSH1 0x80 DUP1 PUSH1 0x40 MSTORE PUSH1 0x4 CALLDATASIZE LT ISZERO PUSH2 0x12 JUMPI PUSH0 DUP1 REVERT JUMPDEST PUSH0 SWAP1 PUSH0 CALLDATALOAD PUSH1 0xE0 SHR SWAP1 DUP2 PUSH4 0x1A38CAC6 EQ PUSH2 0xDDB JUMPI POP DUP1 PUSH4 0x406EF2EF EQ PUSH2 0xDBE JUMPI DUP1 PUSH4 0x677BD9FF EQ PUSH2 0xB56 JUMPI DUP1 PUSH4 0x88EA76E8 EQ PUSH2 0x789 JUMPI DUP1 PUSH4 0xB1283E77 EQ PUSH2 0x6EA JUMPI DUP1 PUSH4 0xC03FB87C EQ PUSH2 0x659 JUMPI DUP1 PUSH4 0xCF109DE5 EQ PUSH2 0x2FD JUMPI DUP1 PUSH4 0xEB44FDD3 EQ PUSH2 0x1CC JUMPI DUP1 PUSH4 0xF644B3BB EQ PUSH2 0x173 JUMPI DUP1 PUSH4 0xF851A440 EQ PUSH2 0x12E JUMPI DUP1 PUSH4 0xF98D06F0 EQ PUSH2 0xE9 JUMPI PUSH4 0xFC0C546A EQ PUSH2 0xA2 JUMPI PUSH0 DUP1 REVERT JUMPDEST CALLVALUE PUSH2 0xE6 JUMPI DUP1 PUSH1 0x3 NOT CALLDATASIZE ADD SLT PUSH2 0xE6 JUMPI PUSH1 0x40 MLOAD PUSH32 0x0 PUSH1 0x1 PUSH1 0x1 PUSH1 0xA0 SHL SUB AND DUP2 MSTORE PUSH1 0x20 SWAP1 RETURN JUMPDEST DUP1 REVERT JUMPDEST POP CALLVALUE PUSH2 0xE6 JUMPI DUP1 PUSH1 0x3 NOT CALLDATASIZE ADD SLT PUSH2 0xE6 JUMPI PUSH1 0x40 MLOAD PUSH32 0x0 PUSH1 0x1 PUSH1 0x1 PUSH1 0xA0 SHL SUB AND DUP2 MSTORE PUSH1 0x20 SWAP1 RETURN JUMPDEST POP CALLVALUE PUSH2 0xE6 JUMPI DUP1 PUSH1 0x3 NOT CALLDATASIZE ADD SLT PUSH2 0xE6 JUMPI PUSH1 0x40 MLOAD PUSH32 0x0 PUSH1 0x1 PUSH1 0x1 PUSH1 0xA0 SHL SUB AND DUP2 MSTORE PUSH1 0x20 SWAP1 RETURN JUMPDEST POP CALLVALUE PUSH2 0xE6 JUMPI PUSH1 0x40 PUSH2 0x184 CALLDATASIZE PUSH2 0x11B3 JUMP JUMPDEST SWAP3 SWAP1 DUP2 MSTORE PUSH1 0x1 PUSH1 0x20 MSTORE KECCAK256 SWAP1 PUSH1 0x1 DUP1 PUSH1 0xA0 SHL SUB AND PUSH0 MSTORE PUSH1 0x20 MSTORE PUSH1 0x60 PUSH1 0x40 PUSH0 KECCAK256 PUSH1 0xFF DUP2 SLOAD AND SWAP1 PUSH1 0xFF PUSH1 0x2 PUSH1 0x1 DUP4 ADD SLOAD SWAP3 ADD SLOAD AND SWAP1 PUSH1 0x40 MLOAD SWAP3 ISZERO ISZERO DUP4 MSTORE PUSH1 0x20 DUP4 ADD MSTORE ISZERO ISZERO PUSH1 0x40 DUP3 ADD MSTORE RETURN JUMPDEST POP CALLVALUE PUSH2 0xE6 JUMPI PUSH1 0x20 DUP1 PUSH1 0x3 NOT CALLDATASIZE ADD SLT PUSH2 0x2F9 JUMPI PUSH1 0x40 DUP3 PUSH2 0x2C3 SWAP4 PUSH1 0xE0 DUP4 MLOAD PUSH2 0x1F3 DUP2 PUSH2 0x107B JUMP JUMPDEST PUSH1 0x60 DUP2 MSTORE DUP3 DUP7 DUP3 ADD MSTORE DUP3 DUP6 DUP3 ADD MSTORE DUP3 PUSH1 0x60 DUP3 ADD MSTORE DUP3 PUSH1 0x80 DUP3 ADD MSTORE DUP3 PUSH1 0xA0 DUP3 ADD MSTORE DUP3 PUSH1 0xC0 DUP3 ADD MSTORE ADD MSTORE PUSH1 0x4 CALLDATALOAD DUP2 MSTORE DUP1 DUP4 MSTORE KECCAK256 PUSH1 0x40 MLOAD SWAP2 PUSH2 0x231 DUP4 PUSH2 0x107B JUMP JUMPDEST PUSH2 0x23A DUP3 PUSH2 0x10D3 JUMP JUMPDEST DUP4 MSTORE PUSH1 0x1 DUP3 ADD SLOAD SWAP2 DUP2 DUP5 ADD SWAP3 DUP4 MSTORE PUSH1 0x2 DUP2 ADD SLOAD SWAP1 PUSH1 0x40 DUP6 ADD SWAP2 DUP1 PUSH1 0x7 SIGNEXTEND DUP4 MSTORE PUSH1 0x1 PUSH1 0x1 PUSH1 0x40 SHL SUB PUSH1 0x60 DUP8 ADD SWAP1 DUP1 DUP4 PUSH1 0x40 SHR AND DUP3 MSTORE PUSH1 0x80 DUP9 ADD SWAP2 PUSH1 0xFF DUP5 PUSH1 0x80 SHR AND ISZERO ISZERO DUP4 MSTORE PUSH1 0xFF PUSH1 0xA0 DUP11 ADD SWAP5 PUSH1 0x88 SHR AND ISZERO ISZERO DUP5 MSTORE PUSH1 0x4 PUSH1 0x3 DUP7 ADD SLOAD SWAP6 PUSH1 0xC0 DUP12 ADD SWAP7 DUP8 MSTORE ADD SLOAD SWAP6 PUSH1 0xE0 DUP11 ADD SWAP7 DUP8 MSTORE PUSH1 0x40 MLOAD SWAP11 DUP12 SWAP11 DUP10 DUP13 MSTORE MLOAD PUSH2 0x100 DUP1 SWAP11 DUP14 ADD MSTORE PUSH2 0x120 DUP13 ADD SWAP1 PUSH2 0x1175 JUMP JUMPDEST SWAP9 MLOAD PUSH1 0x40 DUP12 ADD MSTORE MLOAD PUSH1 0x7 SIGNEXTEND PUSH1 0x60 DUP11 ADD MSTORE MLOAD AND PUSH1 0x80 DUP9 ADD MSTORE MLOAD ISZERO ISZERO PUSH1 0xA0 DUP8 ADD MSTORE MLOAD ISZERO ISZERO PUSH1 0xC0 DUP7 ADD MSTORE MLOAD PUSH1 0xE0 DUP6 ADD MSTORE MLOAD SWAP1 DUP4 ADD MSTORE SUB SWAP1 RETURN JUMPDEST POP DUP1 REVERT JUMPDEST POP PUSH1 0x40 CALLDATASIZE PUSH1 0x3 NOT ADD SLT PUSH2 0x5BE JUMPI PUSH1 0x4 CALLDATALOAD PUSH1 0x24 DUP1 CALLDATALOAD PUSH1 0x1 PUSH1 0x1 PUSH1 0x40 SHL SUB DUP1 DUP3 GT PUSH2 0x5BE JUMPI CALLDATASIZE PUSH1 0x23 DUP4 ADD SLT ISZERO PUSH2 0x5BE JUMPI DUP2 PUSH1 0x4 ADD CALLDATALOAD DUP2 DUP2 GT PUSH2 0x5BE JUMPI DUP4 DUP4 ADD SWAP3 DUP5 CALLDATASIZE SWAP2 DUP4 PUSH1 0x5 SHL ADD ADD GT PUSH2 0x5BE JUMPI DUP5 PUSH0 MSTORE PUSH1 0x20 SWAP3 PUSH0 DUP5 MSTORE PUSH1 0x40 PUSH0 KECCAK256 SWAP3 PUSH1 0x2 DUP5 ADD SWAP4 DUP5 SLOAD SWAP4 DUP3 DUP6 PUSH1 0x40 SHR AND TIMESTAMP LT PUSH2 0x627 JUMPI PUSH1 0xFF PUSH1 0x80 SWAP6 DUP7 SHR AND PUSH2 0x5F1 JUMPI PUSH1 0x40 MLOAD PUSH4 0xD47EED45 PUSH1 0xE0 SHL DUP2 MSTORE PUSH32 0x0 PUSH1 0x1 PUSH1 0x1 PUSH1 0xA0 SHL SUB AND SWAP5 SWAP1 SWAP2 DUP9 DUP4 DUP1 PUSH2 0x3C2 DUP5 DUP7 PUSH1 0x4 DUP5 ADD PUSH2 0x125C JUMP JUMPDEST SUB DUP2 DUP10 GAS STATICCALL SWAP3 DUP4 ISZERO PUSH2 0x5B3 JUMPI PUSH0 SWAP4 PUSH2 0x5C2 JUMPI JUMPDEST POP DUP6 EXTCODESIZE ISZERO PUSH2 0x5BE JUMPI PUSH1 0x40 MLOAD PUSH4 0x1DF3CBC5 PUSH1 0xE3 SHL DUP2 MSTORE SWAP3 PUSH0 SWAP3 DUP5 SWAP3 DUP4 SWAP2 DUP3 SWAP2 PUSH2 0x400 SWAP2 PUSH1 0x4 DUP5 ADD PUSH2 0x125C JUMP JUMPDEST SUB SWAP2 DUP9 GAS CALL DUP1 ISZERO PUSH2 0x5B3 JUMPI PUSH2 0x58A JUMPI JUMPDEST POP PUSH1 0x1 DUP5 SWAP2 ADD SLOAD PUSH1 0x44 PUSH1 0x40 MLOAD DUP1 SWAP6 DUP2 SWAP4 PUSH4 0x52571AF PUSH1 0xE5 SHL DUP4 MSTORE PUSH1 0x4 DUP4 ADD MSTORE PUSH2 0xE10 DUP12 DUP4 ADD MSTORE GAS STATICCALL SWAP6 DUP7 ISZERO PUSH2 0x57F JUMPI DUP9 SWAP7 PUSH2 0x4BA JUMPI JUMPDEST POP POP SWAP4 MLOAD DUP3 SLOAD PUSH1 0xFF PUSH1 0x88 SHL NOT DUP2 AND PUSH1 0x7 SWAP2 DUP3 SIGNEXTEND SWAP3 SWAP1 SWAP2 SIGNEXTEND SWAP2 SWAP1 SWAP2 SLT ISZERO PUSH1 0x88 SHL PUSH1 0xFF PUSH1 0x88 SHL AND OR DUP3 SSTORE POP PUSH32 0x567004967C94BA65AA833C6D0374E264519BD15A847340C358D34C2E4A5E5D5D SWAP3 POP JUMPDEST DUP1 SLOAD PUSH1 0xFF PUSH1 0x80 SHL NOT AND PUSH1 0x1 PUSH1 0x80 SHL OR SWAP1 DUP2 SWAP1 SSTORE PUSH1 0x40 MLOAD PUSH1 0x88 SWAP2 SWAP1 SWAP2 SHR PUSH1 0xFF AND ISZERO ISZERO DUP2 MSTORE LOG2 DUP1 RETURN JUMPDEST SWAP1 SWAP2 SWAP3 DUP1 SWAP7 POP DUP4 DUP2 RETURNDATASIZE DUP4 GT PUSH2 0x578 JUMPI JUMPDEST PUSH2 0x4D4 DUP2 DUP4 PUSH2 0x10B2 JUMP JUMPDEST DUP2 ADD SUB SLT PUSH2 0x561 JUMPI PUSH1 0x40 MLOAD SWAP6 DUP7 ADD SWAP1 DUP7 DUP3 LT DUP4 DUP4 GT OR PUSH2 0x565 JUMPI POP PUSH1 0x40 MSTORE DUP2 MLOAD DUP1 PUSH1 0x7 SIGNEXTEND DUP2 SUB PUSH2 0x561 JUMPI DUP6 MSTORE DUP4 DUP3 ADD MLOAD SWAP1 DUP2 AND DUP2 SUB PUSH2 0x55D JUMPI DUP4 DUP6 ADD MSTORE PUSH1 0x40 DUP2 ADD MLOAD SWAP4 DUP5 PUSH1 0x3 SIGNEXTEND DUP6 SUB PUSH2 0x55D JUMPI PUSH1 0x60 PUSH2 0x493 SWAP3 PUSH32 0x567004967C94BA65AA833C6D0374E264519BD15A847340C358D34C2E4A5E5D5D SWAP7 PUSH1 0x40 DUP5 ADD MSTORE ADD MLOAD PUSH1 0x60 DUP3 ADD MSTORE SWAP4 PUSH0 DUP1 PUSH2 0x446 JUMP JUMPDEST DUP7 DUP1 REVERT JUMPDEST DUP8 DUP1 REVERT JUMPDEST PUSH4 0x4E487B71 PUSH1 0xE0 SHL PUSH0 SWAP1 DUP2 MSTORE PUSH1 0x41 PUSH1 0x4 MSTORE REVERT JUMPDEST POP RETURNDATASIZE PUSH2 0x4CA JUMP JUMPDEST PUSH1 0x40 MLOAD RETURNDATASIZE DUP11 DUP3 RETURNDATACOPY RETURNDATASIZE SWAP1 REVERT JUMPDEST SWAP1 SWAP9 POP DUP2 DUP2 GT PUSH2 0x5A0 JUMPI PUSH1 0x40 MSTORE PUSH0 SWAP8 PUSH1 0x1 PUSH2 0x410 JUMP JUMPDEST DUP7 PUSH4 0x4E487B71 PUSH1 0xE0 SHL PUSH0 MSTORE PUSH1 0x41 PUSH1 0x4 MSTORE PUSH0 REVERT JUMPDEST PUSH1 0x40 MLOAD RETURNDATASIZE PUSH0 DUP3 RETURNDATACOPY RETURNDATASIZE SWAP1 REVERT JUMPDEST PUSH0 DUP1 REVERT JUMPDEST SWAP1 SWAP3 POP DUP9 DUP2 DUP2 RETURNDATASIZE DUP4 GT PUSH2 0x5EA JUMPI JUMPDEST PUSH2 0x5DA DUP2 DUP4 PUSH2 0x10B2 JUMP JUMPDEST DUP2 ADD SUB SLT PUSH2 0x5BE JUMPI MLOAD SWAP2 PUSH0 PUSH2 0x3D5 JUMP JUMPDEST POP RETURNDATASIZE PUSH2 0x5D0 JUMP JUMPDEST PUSH1 0x40 MLOAD PUSH3 0x461BCD PUSH1 0xE5 SHL DUP2 MSTORE PUSH1 0x4 DUP2 ADD DUP9 SWAP1 MSTORE PUSH1 0xF DUP2 DUP11 ADD MSTORE PUSH15 0x185B1C9958591E481CD95D1D1B1959 PUSH1 0x8A SHL PUSH1 0x44 DUP3 ADD MSTORE PUSH1 0x64 SWAP1 REVERT JUMPDEST PUSH1 0x40 MLOAD PUSH3 0x461BCD PUSH1 0xE5 SHL DUP2 MSTORE PUSH1 0x4 DUP2 ADD DUP9 SWAP1 MSTORE PUSH1 0xB DUP2 DUP11 ADD MSTORE PUSH11 0x1B9BDD08195E1C1A5C9959 PUSH1 0xAA SHL PUSH1 0x44 DUP3 ADD MSTORE PUSH1 0x64 SWAP1 REVERT JUMPDEST CALLVALUE PUSH2 0x5BE JUMPI PUSH2 0x667 CALLDATASIZE PUSH2 0x11B3 JUMP JUMPDEST SWAP1 PUSH0 PUSH1 0x40 DUP1 MLOAD PUSH2 0x676 DUP2 PUSH2 0x1097 JUMP JUMPDEST DUP3 DUP2 MSTORE DUP3 PUSH1 0x20 DUP3 ADD MSTORE ADD MSTORE PUSH0 MSTORE PUSH1 0x1 PUSH1 0x20 MSTORE PUSH1 0x40 PUSH0 KECCAK256 SWAP1 PUSH1 0x1 DUP1 PUSH1 0xA0 SHL SUB AND PUSH0 MSTORE PUSH1 0x20 MSTORE PUSH1 0x60 PUSH1 0x40 PUSH0 KECCAK256 PUSH1 0x40 MLOAD PUSH2 0x6AC DUP2 PUSH2 0x1097 JUMP JUMPDEST PUSH1 0xFF DUP3 SLOAD AND ISZERO ISZERO SWAP2 DUP3 DUP3 MSTORE PUSH1 0x40 PUSH1 0xFF PUSH1 0x2 PUSH1 0x1 DUP5 ADD SLOAD SWAP4 PUSH1 0x20 DUP7 ADD SWAP5 DUP6 MSTORE ADD SLOAD AND SWAP3 ADD SWAP2 ISZERO ISZERO DUP3 MSTORE PUSH1 0x40 MLOAD SWAP3 DUP4 MSTORE MLOAD PUSH1 0x20 DUP4 ADD MSTORE MLOAD ISZERO ISZERO PUSH1 0x40 DUP3 ADD MSTORE RETURN JUMPDEST CALLVALUE PUSH2 0x5BE JUMPI PUSH1 0x20 CALLDATASIZE PUSH1 0x3 NOT ADD SLT PUSH2 0x5BE JUMPI PUSH1 0x4 CALLDATALOAD PUSH0 MSTORE PUSH0 PUSH1 0x20 MSTORE PUSH2 0x742 PUSH1 0x40 PUSH0 KECCAK256 PUSH2 0x714 DUP2 PUSH2 0x10D3 JUMP JUMPDEST SWAP1 PUSH1 0x1 DUP2 ADD SLOAD SWAP1 PUSH1 0x2 DUP2 ADD SLOAD SWAP1 PUSH1 0xFF PUSH1 0x4 PUSH1 0x3 DUP4 ADD SLOAD SWAP3 ADD SLOAD SWAP3 PUSH1 0x40 MLOAD SWAP7 DUP8 SWAP7 PUSH2 0x100 DUP1 DUP10 MSTORE DUP9 ADD SWAP1 PUSH2 0x1175 JUMP JUMPDEST SWAP5 PUSH1 0x20 DUP8 ADD MSTORE DUP1 PUSH1 0x7 SIGNEXTEND PUSH1 0x40 DUP8 ADD MSTORE PUSH1 0x1 PUSH1 0x1 PUSH1 0x40 SHL SUB DUP2 PUSH1 0x40 SHR AND PUSH1 0x60 DUP8 ADD MSTORE DUP2 DUP2 PUSH1 0x80 SHR AND ISZERO ISZERO PUSH1 0x80 DUP8 ADD MSTORE PUSH1 0x88 SHR AND ISZERO ISZERO PUSH1 0xA0 DUP6 ADD MSTORE PUSH1 0xC0 DUP5 ADD MSTORE PUSH1 0xE0 DUP4 ADD MSTORE SUB SWAP1 RETURN JUMPDEST CALLVALUE PUSH2 0x5BE JUMPI PUSH1 0x80 CALLDATASIZE PUSH1 0x3 NOT ADD SLT PUSH2 0x5BE JUMPI PUSH1 0x4 CALLDATALOAD PUSH1 0x1 PUSH1 0x1 PUSH1 0x40 SHL SUB DUP2 GT PUSH2 0x5BE JUMPI CALLDATASIZE PUSH1 0x23 DUP3 ADD SLT ISZERO PUSH2 0x5BE JUMPI PUSH1 0x1 PUSH1 0x1 PUSH1 0x40 SHL SUB DUP2 PUSH1 0x4 ADD CALLDATALOAD GT PUSH2 0x5BE JUMPI CALLDATASIZE PUSH1 0x24 DUP3 PUSH1 0x4 ADD CALLDATALOAD DUP4 ADD ADD GT PUSH2 0x5BE JUMPI PUSH1 0x44 CALLDATALOAD DUP1 PUSH1 0x7 SIGNEXTEND DUP2 SUB PUSH2 0x5BE JUMPI PUSH1 0x64 CALLDATALOAD SWAP1 PUSH1 0x1 PUSH1 0x1 PUSH1 0x40 SHL SUB DUP3 AND DUP3 SUB PUSH2 0x5BE JUMPI TIMESTAMP PUSH1 0x1 PUSH1 0x1 PUSH1 0x40 SHL SUB DUP4 AND GT ISZERO PUSH2 0xB19 JUMPI PUSH1 0x2 SLOAD SWAP2 PUSH0 NOT DUP4 EQ PUSH2 0xB05 JUMPI PUSH1 0x1 DUP4 ADD PUSH1 0x2 SSTORE PUSH1 0x40 MLOAD PUSH2 0x829 DUP2 PUSH2 0x107B JUMP JUMPDEST PUSH1 0x40 MLOAD PUSH2 0x844 PUSH1 0x4 DUP8 ADD CALLDATALOAD PUSH1 0x1F ADD PUSH1 0x1F NOT AND PUSH1 0x20 ADD DUP3 PUSH2 0x10B2 JUMP JUMPDEST PUSH1 0x4 DUP7 ADD CALLDATALOAD DUP1 DUP3 MSTORE PUSH1 0x24 DUP8 ADD PUSH1 0x20 DUP4 ADD CALLDATACOPY PUSH0 PUSH1 0x20 DUP8 PUSH1 0x4 ADD CALLDATALOAD DUP4 ADD ADD MSTORE DUP2 MSTORE PUSH1 0x24 CALLDATALOAD PUSH1 0x20 DUP3 ADD MSTORE DUP3 PUSH1 0x7 SIGNEXTEND PUSH1 0x40 DUP3 ADD MSTORE PUSH1 0x1 PUSH1 0x1 PUSH1 0x40 SHL SUB DUP3 AND PUSH1 0x60 DUP3 ADD MSTORE PUSH0 PUSH1 0x80 DUP3 ADD MSTORE PUSH0 PUSH1 0xA0 DUP3 ADD MSTORE PUSH0 PUSH1 0xC0 DUP3 ADD MSTORE PUSH0 PUSH1 0xE0 DUP3 ADD MSTORE DUP4 PUSH0 MSTORE PUSH0 PUSH1 0x20 MSTORE PUSH1 0x40 PUSH0 KECCAK256 SWAP1 DUP1 MLOAD DUP1 MLOAD SWAP1 PUSH1 0x1 PUSH1 0x1 PUSH1 0x40 SHL SUB DUP3 GT PUSH2 0xAF1 JUMPI PUSH2 0x8C4 DUP5 SLOAD PUSH2 0x1043 JUMP JUMPDEST PUSH1 0x1F DUP2 GT PUSH2 0xAB0 JUMPI JUMPDEST POP SWAP2 DUP7 SWAP6 SWAP4 SWAP2 PUSH1 0x20 SWAP9 SWAP6 SWAP4 DUP10 SWAP1 PUSH1 0x1F DUP4 GT PUSH1 0x1 EQ PUSH2 0xA14 JUMPI PUSH1 0xE0 PUSH1 0x1 PUSH1 0x1 PUSH1 0x40 SHL SUB SWAP5 DUP5 PUSH32 0x3EE12B547B70DDD8BA48849DBB5AD99E5E061EB8939578E9DA8096266886022D SWAP11 SWAP9 SWAP6 PUSH2 0x9E8 SWAP11 SWAP9 SWAP6 PUSH1 0x4 SWAP6 PUSH0 SWAP3 PUSH2 0xA09 JUMPI JUMPDEST POP POP DUP2 PUSH1 0x1 SHL SWAP2 PUSH0 NOT SWAP1 PUSH1 0x3 SHL SHR NOT AND OR DUP5 SSTORE JUMPDEST DUP1 DUP14 ADD MLOAD PUSH1 0x1 DUP6 ADD SSTORE PUSH1 0x40 DUP1 DUP3 ADD MLOAD PUSH1 0x2 DUP7 ADD DUP1 SLOAD PUSH1 0x60 DUP6 ADD MLOAD PUSH1 0x80 DUP1 DUP8 ADD MLOAD PUSH1 0xA0 DUP9 ADD MLOAD PUSH1 0xFF PUSH1 0x88 SHL NOT SWAP7 DUP15 AND SWAP7 SWAP1 SWAP7 AND PUSH18 0xFFFFFFFFFFFFFFFFFFFFFFFFFFFFFFFFFFFF NOT SWAP1 SWAP5 AND SWAP4 SWAP1 SWAP4 OR SWAP2 SWAP1 SWAP6 SHL PUSH16 0xFFFFFFFFFFFFFFFF0000000000000000 AND OR SWAP1 ISZERO ISZERO SWAP1 SWAP4 SHL PUSH1 0xFF PUSH1 0x80 SHL AND SWAP3 SWAP1 SWAP3 OR SWAP1 ISZERO ISZERO PUSH1 0x88 SHL PUSH1 0xFF PUSH1 0x88 SHL AND OR SWAP1 SSTORE PUSH1 0xC0 DUP2 ADD MLOAD PUSH1 0x3 DUP6 ADD SSTORE ADD MLOAD SWAP2 ADD SSTORE PUSH1 0x40 MLOAD SWAP5 DUP6 SWAP5 PUSH1 0x80 DUP7 MSTORE PUSH1 0x80 DUP7 ADD SWAP1 PUSH1 0x24 DUP2 PUSH1 0x4 ADD CALLDATALOAD SWAP2 ADD PUSH2 0x123C JUMP JUMPDEST SWAP3 PUSH1 0x24 CALLDATALOAD DUP11 DUP7 ADD MSTORE PUSH1 0x7 SIGNEXTEND PUSH1 0x40 DUP6 ADD MSTORE AND PUSH1 0x60 DUP4 ADD MSTORE SUB SWAP1 LOG2 PUSH1 0x40 MLOAD SWAP1 DUP2 MSTORE RETURN JUMPDEST ADD MLOAD SWAP1 POP DUP16 DUP1 PUSH2 0x925 JUMP JUMPDEST SWAP1 DUP5 PUSH0 MSTORE DUP11 PUSH0 KECCAK256 SWAP2 PUSH0 JUMPDEST PUSH1 0x1F NOT DUP6 AND DUP2 LT PUSH2 0xA96 JUMPI POP PUSH1 0x1 PUSH1 0x1 PUSH1 0x40 SHL SUB SWAP5 PUSH1 0x1 DUP6 PUSH2 0x9E8 SWAP11 SWAP9 SWAP6 PUSH1 0x4 SWAP6 PUSH1 0xE0 SWAP6 PUSH32 0x3EE12B547B70DDD8BA48849DBB5AD99E5E061EB8939578E9DA8096266886022D SWAP15 SWAP13 SWAP10 PUSH1 0x1F NOT DUP2 AND LT PUSH2 0xA7E JUMPI JUMPDEST POP POP POP DUP2 SHL ADD DUP5 SSTORE PUSH2 0x939 JUMP JUMPDEST ADD MLOAD PUSH0 NOT PUSH1 0xF8 DUP5 PUSH1 0x3 SHL AND SHR NOT AND SWAP1 SSTORE DUP16 DUP1 DUP1 PUSH2 0xA71 JUMP JUMPDEST DUP2 DUP4 ADD MLOAD DUP5 SSTORE DUP12 SWAP11 POP PUSH1 0x1 SWAP1 SWAP4 ADD SWAP3 SWAP2 DUP13 ADD SWAP2 DUP13 ADD PUSH2 0xA1E JUMP JUMPDEST DUP5 PUSH0 MSTORE PUSH1 0x20 PUSH0 KECCAK256 PUSH1 0x1F DUP5 ADD PUSH1 0x5 SHR DUP2 ADD PUSH1 0x20 DUP6 LT PUSH2 0xAEA JUMPI JUMPDEST PUSH1 0x1F DUP4 ADD PUSH1 0x5 SHR DUP3 ADD DUP2 LT PUSH2 0xADF JUMPI POP POP PUSH2 0x8CD JUMP JUMPDEST PUSH0 DUP2 SSTORE PUSH1 0x1 ADD PUSH2 0xAC9 JUMP JUMPDEST POP DUP1 PUSH2 0xAC9 JUMP JUMPDEST PUSH4 0x4E487B71 PUSH1 0xE0 SHL PUSH0 MSTORE PUSH1 0x41 PUSH1 0x4 MSTORE PUSH1 0x24 PUSH0 REVERT JUMPDEST PUSH4 0x4E487B71 PUSH1 0xE0 SHL PUSH0 MSTORE PUSH1 0x11 PUSH1 0x4 MSTORE PUSH1 0x24 PUSH0 REVERT JUMPDEST PUSH1 0x40 MLOAD PUSH3 0x461BCD PUSH1 0xE5 SHL DUP2 MSTORE PUSH1 0x20 PUSH1 0x4 DUP3 ADD MSTORE PUSH1 0x15 PUSH1 0x24 DUP3 ADD MSTORE PUSH21 0x657870697279206D75737420626520667574757265 PUSH1 0x58 SHL PUSH1 0x44 DUP3 ADD MSTORE PUSH1 0x64 SWAP1 REVERT JUMPDEST CALLVALUE PUSH2 0x5BE JUMPI PUSH1 0x20 DUP1 PUSH1 0x3 NOT CALLDATASIZE ADD SLT PUSH2 0x5BE JUMPI PUSH1 0x4 CALLDATALOAD DUP1 PUSH0 MSTORE PUSH0 DUP3 MSTORE PUSH1 0x40 PUSH0 KECCAK256 SWAP2 PUSH1 0x2 DUP4 ADD SLOAD SWAP3 PUSH1 0xFF DUP5 PUSH1 0x80 SHR AND ISZERO PUSH2 0xD84 JUMPI DUP3 PUSH0 MSTORE PUSH1 0x1 DUP3 MSTORE PUSH1 0x40 PUSH0 KECCAK256 CALLER PUSH0 MSTORE DUP3 MSTORE PUSH1 0x40 PUSH0 KECCAK256 SWAP4 PUSH1 0x1 DUP6 ADD SLOAD SWAP1 DUP2 ISZERO PUSH2 0xD50 JUMPI PUSH1 0x2 DUP7 ADD SWAP3 DUP4 SLOAD SWAP7 PUSH1 0xFF DUP9 AND PUSH2 0xD19 JUMPI PUSH1 0xFF DUP1 SWAP2 SLOAD AND SWAP3 PUSH1 0x88 SHR AND SWAP2 DUP3 ISZERO ISZERO SWAP1 ISZERO ISZERO SUB PUSH2 0xCE9 JUMPI PUSH1 0x4 PUSH1 0x3 DUP3 ADD SLOAD SWAP2 ADD SLOAD PUSH2 0xBE4 DUP2 DUP4 PUSH2 0x122F JUMP JUMPDEST SWAP3 ISZERO PUSH2 0xCE1 JUMPI POP SWAP1 JUMPDEST DUP1 DUP4 MUL SWAP3 DUP4 DIV SUB PUSH2 0xB05 JUMPI DUP1 ISZERO PUSH2 0xCCD JUMPI PUSH1 0xFF NOT SWAP1 SWAP6 AND PUSH1 0x1 OR SWAP1 SWAP2 SSTORE PUSH1 0x40 MLOAD PUSH4 0xA9059CBB PUSH1 0xE0 SHL DUP2 MSTORE CALLER PUSH1 0x4 DUP3 ADD MSTORE SWAP4 SWAP1 DIV PUSH1 0x24 DUP5 ADD DUP2 SWAP1 MSTORE SWAP3 SWAP1 DUP1 DUP3 PUSH1 0x44 DUP2 PUSH0 PUSH32 0x0 PUSH1 0x1 PUSH1 0x1 PUSH1 0xA0 SHL SUB AND GAS CALL SWAP2 DUP3 ISZERO PUSH2 0x5B3 JUMPI PUSH32 0x5380CF6FE903B40C6D5A9E0DFBCA2F3A423F0A21520B4D5947ED5169BDBA946D SWAP3 PUSH2 0xC95 SWAP2 PUSH0 SWAP2 PUSH2 0xCA0 JUMPI JUMPDEST POP PUSH2 0x11F1 JUMP JUMPDEST PUSH1 0x40 MLOAD SWAP4 DUP5 MSTORE CALLER SWAP4 LOG3 STOP JUMPDEST PUSH2 0xCC0 SWAP2 POP DUP4 RETURNDATASIZE DUP6 GT PUSH2 0xCC6 JUMPI JUMPDEST PUSH2 0xCB8 DUP2 DUP4 PUSH2 0x10B2 JUMP JUMPDEST DUP2 ADD SWAP1 PUSH2 0x11D9 JUMP JUMPDEST DUP7 PUSH2 0xC8F JUMP JUMPDEST POP RETURNDATASIZE PUSH2 0xCAE JUMP JUMPDEST PUSH4 0x4E487B71 PUSH1 0xE0 SHL PUSH0 MSTORE PUSH1 0x12 PUSH1 0x4 MSTORE PUSH1 0x24 PUSH0 REVERT JUMPDEST SWAP1 POP SWAP1 PUSH2 0xBED JUMP JUMPDEST PUSH1 0x40 MLOAD PUSH3 0x461BCD PUSH1 0xE5 SHL DUP2 MSTORE PUSH1 0x4 DUP2 ADD DUP7 SWAP1 MSTORE PUSH1 0x8 PUSH1 0x24 DUP3 ADD MSTORE PUSH8 0x18995D081B1BDCDD PUSH1 0xC2 SHL PUSH1 0x44 DUP3 ADD MSTORE PUSH1 0x64 SWAP1 REVERT JUMPDEST PUSH1 0x40 MLOAD PUSH3 0x461BCD PUSH1 0xE5 SHL DUP2 MSTORE PUSH1 0x4 DUP2 ADD DUP8 SWAP1 MSTORE PUSH1 0xF PUSH1 0x24 DUP3 ADD MSTORE PUSH15 0x185B1C9958591E4818DB185A5B5959 PUSH1 0x8A SHL PUSH1 0x44 DUP3 ADD MSTORE PUSH1 0x64 SWAP1 REVERT JUMPDEST PUSH1 0x40 MLOAD PUSH3 0x461BCD PUSH1 0xE5 SHL DUP2 MSTORE PUSH1 0x4 DUP2 ADD DUP6 SWAP1 MSTORE PUSH1 0xC PUSH1 0x24 DUP3 ADD MSTORE PUSH12 0x1B9BC818995D08199BDD5B99 PUSH1 0xA2 SHL PUSH1 0x44 DUP3 ADD MSTORE PUSH1 0x64 SWAP1 REVERT JUMPDEST PUSH1 0x40 MLOAD PUSH3 0x461BCD PUSH1 0xE5 SHL DUP2 MSTORE PUSH1 0x4 DUP2 ADD DUP4 SWAP1 MSTORE PUSH1 0x12 PUSH1 0x24 DUP3 ADD MSTORE PUSH18 0x1B585C9AD95D081B9BDD081CD95D1D1B1959 PUSH1 0x72 SHL PUSH1 0x44 DUP3 ADD MSTORE PUSH1 0x64 SWAP1 REVERT JUMPDEST CALLVALUE PUSH2 0x5BE JUMPI PUSH0 CALLDATASIZE PUSH1 0x3 NOT ADD SLT PUSH2 0x5BE JUMPI PUSH1 0x20 PUSH1 0x2 SLOAD PUSH1 0x40 MLOAD SWAP1 DUP2 MSTORE RETURN JUMPDEST CALLVALUE PUSH2 0x5BE JUMPI PUSH1 0x60 CALLDATASIZE PUSH1 0x3 NOT ADD SLT PUSH2 0x5BE JUMPI PUSH1 0x4 CALLDATALOAD PUSH1 0x24 DUP1 CALLDATALOAD SWAP1 DUP2 ISZERO ISZERO SWAP4 DUP5 DUP4 SUB PUSH2 0x5BE JUMPI PUSH1 0x44 SWAP3 DUP4 CALLDATALOAD SWAP4 DUP6 PUSH0 MSTORE PUSH1 0x20 SWAP4 PUSH0 DUP6 MSTORE PUSH1 0x40 PUSH0 KECCAK256 SWAP4 PUSH1 0x2 DUP6 ADD SLOAD SWAP1 PUSH1 0x1 PUSH1 0x1 PUSH1 0x40 SHL SUB DUP3 PUSH1 0x40 SHR AND TIMESTAMP LT ISZERO PUSH2 0x1012 JUMPI POP PUSH1 0x80 SHR PUSH1 0xFF AND PUSH2 0xFDF JUMPI DUP6 ISZERO PUSH2 0xF9D JUMPI DUP7 PUSH0 MSTORE PUSH1 0x1 DUP6 MSTORE PUSH1 0x40 PUSH0 KECCAK256 CALLER PUSH0 MSTORE DUP6 MSTORE PUSH1 0x40 PUSH0 KECCAK256 PUSH1 0x1 DUP2 ADD SWAP3 DUP4 SLOAD PUSH2 0xF5B JUMPI PUSH1 0x40 MLOAD PUSH4 0x23B872DD PUSH1 0xE0 SHL DUP2 MSTORE CALLER PUSH1 0x4 DUP3 ADD MSTORE ADDRESS SWAP4 DUP2 ADD SWAP4 SWAP1 SWAP4 MSTORE DUP3 ADD DUP8 SWAP1 MSTORE DUP6 DUP3 PUSH1 0x64 DUP2 PUSH0 PUSH32 0x0 PUSH1 0x1 PUSH1 0x1 PUSH1 0xA0 SHL SUB AND GAS CALL SWAP2 DUP3 ISZERO PUSH2 0x5B3 JUMPI PUSH1 0x2 SWAP3 PUSH2 0xEC9 SWAP2 PUSH0 SWAP2 PUSH2 0xF3E JUMPI POP PUSH2 0x11F1 JUMP JUMPDEST DUP7 PUSH1 0xFF NOT SWAP4 DUP5 DUP4 SLOAD AND PUSH1 0xFF DUP13 AND OR DUP4 SSTORE SSTORE ADD SWAP1 DUP2 SLOAD AND SWAP1 SSTORE PUSH0 EQ PUSH2 0xF29 JUMPI PUSH1 0x3 ADD PUSH2 0xEF5 DUP4 DUP3 SLOAD PUSH2 0x122F JUMP JUMPDEST SWAP1 SSTORE JUMPDEST PUSH1 0x40 MLOAD SWAP4 DUP5 MSTORE DUP4 ADD MSTORE PUSH32 0x4AF71B021E799C62C158BD54636CA8DA2FA26115A21A2DC6EFE486EC104FD15F PUSH1 0x40 CALLER SWAP4 LOG3 STOP JUMPDEST PUSH1 0x4 ADD PUSH2 0xF37 DUP4 DUP3 SLOAD PUSH2 0x122F JUMP JUMPDEST SWAP1 SSTORE PUSH2 0xEF8 JUMP JUMPDEST PUSH2 0xF55 SWAP2 POP DUP9 RETURNDATASIZE DUP11 GT PUSH2 0xCC6 JUMPI PUSH2 0xCB8 DUP2 DUP4 PUSH2 0x10B2 JUMP JUMPDEST DUP12 PUSH2 0xC8F JUMP JUMPDEST DUP7 PUSH32 0x616C726561647920626574206F6E2074686973206D61726B6574000000000000 PUSH1 0x64 SWAP3 PUSH1 0x1A DUP7 PUSH1 0x40 MLOAD SWAP5 PUSH3 0x461BCD PUSH1 0xE5 SHL DUP7 MSTORE PUSH1 0x4 DUP7 ADD MSTORE DUP5 ADD MSTORE DUP3 ADD MSTORE REVERT JUMPDEST PUSH32 0x616D6F756E74206D75737420626520706F736974697665000000000000000000 PUSH1 0x64 SWAP3 PUSH1 0x17 DUP8 SWAP4 PUSH1 0x40 MLOAD SWAP5 PUSH3 0x461BCD PUSH1 0xE5 SHL DUP7 MSTORE PUSH1 0x4 DUP7 ADD MSTORE DUP5 ADD MSTORE DUP3 ADD MSTORE REVERT JUMPDEST PUSH14 0x1B585C9AD95D081CD95D1D1B1959 PUSH1 0x92 SHL PUSH1 0x64 SWAP3 PUSH1 0xE DUP8 SWAP4 PUSH1 0x40 MLOAD SWAP5 PUSH3 0x461BCD PUSH1 0xE5 SHL DUP7 MSTORE PUSH1 0x4 DUP7 ADD MSTORE DUP5 ADD MSTORE DUP3 ADD MSTORE REVERT JUMPDEST PUSH3 0x461BCD PUSH1 0xE5 SHL DUP2 MSTORE PUSH1 0x4 DUP2 ADD DUP8 SWAP1 MSTORE PUSH1 0xE DUP4 DUP3 ADD MSTORE PUSH14 0x1B585C9AD95D08195E1C1A5C9959 PUSH1 0x92 SHL DUP5 DUP3 ADD MSTORE PUSH1 0x64 SWAP1 REVERT JUMPDEST SWAP1 PUSH1 0x1 DUP3 DUP2 SHR SWAP3 AND DUP1 ISZERO PUSH2 0x1071 JUMPI JUMPDEST PUSH1 0x20 DUP4 LT EQ PUSH2 0x105D JUMPI JUMP JUMPDEST PUSH4 0x4E487B71 PUSH1 0xE0 SHL PUSH0 MSTORE PUSH1 0x22 PUSH1 0x4 MSTORE PUSH1 0x24 PUSH0 REVERT JUMPDEST SWAP2 PUSH1 0x7F AND SWAP2 PUSH2 0x1052 JUMP JUMPDEST PUSH2 0x100 DUP2 ADD SWAP1 DUP2 LT PUSH1 0x1 PUSH1 0x1 PUSH1 0x40 SHL SUB DUP3 GT OR PUSH2 0xAF1 JUMPI PUSH1 0x40 MSTORE JUMP JUMPDEST PUSH1 0x60 DUP2 ADD SWAP1 DUP2 LT PUSH1 0x1 PUSH1 0x1 PUSH1 0x40 SHL SUB DUP3 GT OR PUSH2 0xAF1 JUMPI PUSH1 0x40 MSTORE JUMP JUMPDEST SWAP1 PUSH1 0x1F DUP1 NOT SWAP2 ADD AND DUP2 ADD SWAP1 DUP2 LT PUSH1 0x1 PUSH1 0x1 PUSH1 0x40 SHL SUB DUP3 GT OR PUSH2 0xAF1 JUMPI PUSH1 0x40 MSTORE JUMP JUMPDEST SWAP1 PUSH1 0x40 MLOAD SWAP2 DUP3 PUSH0 DUP3 SLOAD PUSH2 0x10E5 DUP2 PUSH2 0x1043 JUMP JUMPDEST SWAP1 DUP2 DUP5 MSTORE PUSH1 0x20 SWAP5 PUSH1 0x1 SWAP2 PUSH1 0x1 DUP2 AND SWAP1 DUP2 PUSH0 EQ PUSH2 0x1153 JUMPI POP PUSH1 0x1 EQ PUSH2 0x1115 JUMPI JUMPDEST POP POP POP PUSH2 0x1113 SWAP3 POP SUB DUP4 PUSH2 0x10B2 JUMP JUMPDEST JUMP JUMPDEST PUSH0 SWAP1 DUP2 MSTORE DUP6 DUP2 KECCAK256 SWAP6 SWAP4 POP SWAP2 SWAP1 JUMPDEST DUP2 DUP4 LT PUSH2 0x113B JUMPI POP POP PUSH2 0x1113 SWAP4 POP DUP3 ADD ADD PUSH0 DUP1 DUP1 PUSH2 0x1104 JUMP JUMPDEST DUP6 SLOAD DUP9 DUP5 ADD DUP6 ADD MSTORE SWAP5 DUP6 ADD SWAP5 DUP8 SWAP5 POP SWAP2 DUP4 ADD SWAP2 PUSH2 0x1122 JUMP JUMPDEST SWAP3 POP POP POP PUSH2 0x1113 SWAP5 SWAP3 POP PUSH1 0xFF NOT AND DUP3 DUP5 ADD MSTORE ISZERO ISZERO PUSH1 0x5 SHL DUP3 ADD ADD PUSH0 DUP1 DUP1 PUSH2 0x1104 JUMP JUMPDEST SWAP2 SWAP1 DUP3 MLOAD SWAP3 DUP4 DUP3 MSTORE PUSH0 JUMPDEST DUP5 DUP2 LT PUSH2 0x119F JUMPI POP POP DUP3 PUSH0 PUSH1 0x20 DUP1 SWAP5 SWAP6 DUP5 ADD ADD MSTORE PUSH1 0x1F DUP1 NOT SWAP2 ADD AND ADD ADD SWAP1 JUMP JUMPDEST PUSH1 0x20 DUP2 DUP4 ADD DUP2 ADD MLOAD DUP5 DUP4 ADD DUP3 ADD MSTORE ADD PUSH2 0x117F JUMP JUMPDEST PUSH1 0x40 SWAP1 PUSH1 0x3 NOT ADD SLT PUSH2 0x5BE JUMPI PUSH1 0x4 CALLDATALOAD SWAP1 PUSH1 0x24 CALLDATALOAD PUSH1 0x1 PUSH1 0x1 PUSH1 0xA0 SHL SUB DUP2 AND DUP2 SUB PUSH2 0x5BE JUMPI SWAP1 JUMP JUMPDEST SWAP1 DUP2 PUSH1 0x20 SWAP2 SUB SLT PUSH2 0x5BE JUMPI MLOAD DUP1 ISZERO ISZERO DUP2 SUB PUSH2 0x5BE JUMPI SWAP1 JUMP JUMPDEST ISZERO PUSH2 0x11F8 JUMPI JUMP JUMPDEST PUSH1 0x40 MLOAD PUSH3 0x461BCD PUSH1 0xE5 SHL DUP2 MSTORE PUSH1 0x20 PUSH1 0x4 DUP3 ADD MSTORE PUSH1 0xF PUSH1 0x24 DUP3 ADD MSTORE PUSH15 0x1D1C985B9CD9995C8819985A5B1959 PUSH1 0x8A SHL PUSH1 0x44 DUP3 ADD MSTORE PUSH1 0x64 SWAP1 REVERT JUMPDEST SWAP2 SWAP1 DUP3 ADD DUP1 SWAP3 GT PUSH2 0xB05 JUMPI JUMP JUMPDEST SWAP1 DUP1 PUSH1 0x20 SWAP4 SWAP3 DUP2 DUP5 MSTORE DUP5 DUP5 ADD CALLDATACOPY PUSH0 DUP3 DUP3 ADD DUP5 ADD MSTORE PUSH1 0x1F ADD PUSH1 0x1F NOT AND ADD ADD SWAP1 JUMP JUMPDEST SWAP2 PUSH1 0x20 DUP2 PUSH1 0x20 DUP6 ADD PUSH1 0x20 DUP7 MSTORE MSTORE PUSH1 0x40 DUP5 ADD SWAP4 PUSH1 0x40 DUP4 PUSH1 0x5 SHL DUP3 ADD ADD SWAP5 DUP5 PUSH0 SWAP3 JUMPDEST DUP6 DUP5 LT PUSH2 0x128D JUMPI POP POP POP POP POP POP POP SWAP1 JUMP JUMPDEST SWAP1 SWAP2 SWAP3 SWAP4 SWAP5 SWAP6 SWAP7 PUSH1 0x3F NOT DUP3 DUP3 SUB ADD DUP5 MSTORE DUP8 CALLDATALOAD PUSH1 0x1E NOT DUP5 CALLDATASIZE SUB ADD DUP2 SLT ISZERO PUSH2 0x5BE JUMPI DUP4 ADD DUP7 DUP2 ADD SWAP2 SWAP1 CALLDATALOAD PUSH1 0x1 PUSH1 0x1 PUSH1 0x40 SHL SUB DUP2 GT PUSH2 0x5BE JUMPI DUP1 CALLDATASIZE SUB DUP4 SGT PUSH2 0x5BE JUMPI PUSH2 0x12DB DUP9 SWAP3 DUP4 SWAP3 PUSH1 0x1 SWAP6 PUSH2 0x123C JUMP JUMPDEST SWAP10 ADD SWAP5 ADD SWAP5 ADD SWAP3 SWAP6 SWAP5 SWAP4 SWAP2 SWAP1 PUSH2 0x127C JUMP INVALID LOG2 PUSH5 0x6970667358 0x22 SLT KECCAK256 EQ SELFBALANCE PUSH32 0x91428DC5B8A0FBB91B49DDE13E40145C10BE81F66A5FE0747D4C1390AE64736F PUSH13 0x63430008180033000000000000 "},"methodIdentifiers":{"admin()":"f851a440","bets(uint256,address)":"f644b3bb","claimWinnings(uint256)":"677bd9ff","createMarket(string,bytes32,int64,uint64)":"88ea76e8","getMarket(uint256)":"eb44fdd3","getUserBet(uint256,address)":"c03fb87c","markets(uint256)":"b1283e77","nextMarketId()":"406ef2ef","placeBet(uint256,bool,uint256)":"1a38cac6","pyth()":"f98d06f0","settleMarket(uint256,bytes[])":"cf109de5","token()":"fc0c546a"}}}}}